:020000040000FA
:06000000FDEF54F01200B8
:020006001200E6
:0800080007EF00F01200DACF4F
:10001000E4FFE2CFDAFFE9CFE4FFEACFE4FFF3CF7A
:10002000E4FFF4CFE4FFE652D9CFE6FFE1CFD9FFFA
:1000300081E941E8A450200B15E0A350200B12E009
:1000400000010051100802E20001006B00010051A4
:10005000EA6A010FE96E000EEA2274CFEFFF000199
:10006000002BA49AF250040B01E19AD0F250200B1D
:1000700001E196D0080123510008000E245504E246
:1000800008012307000E245B25C82EF826C82FF888
:100090000801306B0801D8903051000A06E6FF0EC7
:1000A0002E5DFF0E2F59000E305904E20801252B5A
:1000B000000E2623016A070E015C33E20150140D85
:1000C000F3CFE9FFF4CFEAFF4C0EE926030EEA2254
:1000D0000C0EE926000EEA22EECF2EF8EFCF2FF815
:1000E0000801306B0801D8903051000A06E6FF0E77
:1000F0002E5DFF0E2F59000E305911E20150140DE4
:10010000F3CFE9FFF4CFEAFF4C0EE926030EEA2213
:100110000C0EE926000EEA22EE2A000EEF22012A3A
:10012000CAD70801272B000E2823080127514008B1
:100130001F0E285506E20801276B286B0801010EE7
:10014000296F0201FB3513E20201FA2B000EFB239B
:100150000201FB3504E2FA51E808030EFB5507E201
:100160000201FA69FB690201FC6B0201FD6B0201ED
:10017000F63513E20201F52B000EF6230201F635E7
:1001800004E2F551E808030EF65507E20201F569AD
:10019000F6690201F76B0201F86B050ED66EF29458
:1001A0000101A28342E9E7CFD9FFE552E5CFF4FF91
:1001B000E5CFF3FFE5CFEAFFE5CFE9FFE5CFDAFFD3
:1001C0001100740ED36EC00E9B6EF28CF28E120074
:1001D00060906092609660981200D9CFE6FFE1CF00
:1001E000D9FF83E900EB23F801EB24F80801235140
:1001F0000008000E245501E2F9D741E9E7CFD9FF05
:100200001200C290C26A800EC16E800EC06EF80EDF
:10021000C0140209C06EC2800F01459F0F01456BDB
:100220000F01900E446F0F017F0E436F0F01458F3A
:10023000D59E450ED56EF28AF184F294050ED66EE7
:10024000D58E200EE66EE66AC8DF42E912000F0185
:10025000386BC00E0F0139170F013A6BC00E0F013A
:100260003B17F80E0F013C17926AC00E9316946A62
:10027000C00E9516F80E96160F013B9F959C958E15
:1002800012001200D9CFE6FFE1CFD9FF82E941E8A1
:10029000EA6A0034FE0BE96EEA36A00EE926000E8B
:1002A000EA22EE6AED6AAEC1E9FFAFC1EAFFB5C16D
:1002B000EFFF0101AB511F0BF36EF346F346830EC4
:1002C000C214F310C26E026A03011251025C75E29D
:1002D0000250EA6AB70FE96E010EEA22EFCFB6F1DB
:1002E0000250EA6AB90FE96E010EEA22EFCFB8F1C7
:1002F0000250EA6ABB0FE96E010EEA22EFCFBAF1B3
:100300000250EA6ABD0FE96E010EEA22EFCFBCF19E
:100310000250EA6ABF0FE96E010EEA22EFCFBEF18A
:10032000ACC1E9FFADC1EAFF0101A551EF12000028
:10033000000000000F0145830000000000000F01D5
:1003400045930101B65189120101B8518A12010188
:10035000BA518B120101BC518C120101BE518D1298
:10036000BC6A00009E929EA2FED7C282C2B2FED795
:10037000EA6A0034FE0BE96EEA36A00EE926000EAA
:10038000EA22C350EE26C450ED22ACC1E9FFADC154
:10039000EAFF0101B451EF160101B61D89160101F2
:1003A000B81D8A160101BA1D8B160101BC1D8C16E1
:1003B0000101BE1D8D16022A87D742E9E7CFD9FF7A
:1003C0001200D9CFE6FFE1CFD9FF82E941E8EA6A1E
:1003D0000034FE0BE96EEA36A00EE926000EEA2292
:1003E000EE6AED6A026A03011251025C01E3D4D0A5
:1003F0000250EA6AB70FE96E010EEA22EFCFB6F1BA
:100400000250EA6AB90FE96E010EEA22EFCFB8F1A5
:100410000250EA6ABB0FE96E010EEA22EFCFBAF191
:100420000250EA6ABD0FE96E010EEA22EFCFBCF17D
:100430000250EA6ABF0FE96E010EEA22EFCFBEF169
:10044000ACC1E9FFADC1EAFF0101A551EF12AEC198
:10045000E9FFAFC1EAFFB5C1EFFF0F01388192900C
:100460008980830EC2140009C26E00000101AB51E5
:100470001F0BF36EF346F346830EC214F310C26EE5
:100480000101B65189120101B8518A120101BA5114
:100490008B120101BC518C120101BE518D12C2821E
:1004A000C2B2FED7EA6A0034FE0BE96EEA36A00E4D
:1004B000E926000EEA22C350EE26C450ED22ACC15C
:1004C000E9FFADC1EAFF090EE95E000EEA5A01013B
:1004D000A551EF120101A51D0F011C6FACC1E9FF71
:1004E000ADC1EAFF0F011C51EF1600000000000033
:1004F000ACC1E9FFADC1EAFF0101A551EF12010155
:10050000AB511F0BF36EF346F346830EC214F31088
:10051000C26E0101B61D89160101B81D8A160101BE
:10052000BA1D8B160101BC1D8C160101BE1D8D1656
:10053000C282C2B2FED70101A51D0F011C6FACC162
:10054000E9FFADC1EAFF090EE95E000EEA5A0F01AC
:100550001C51EF16ACC1E9FFADC1EAFF0101B45176
:10056000EF168990C3CF1CFFC4CF1DFF0F01FF0EF4
:10057000D8801C57030E1D57EA6A0034FE0BE96E43
:10058000EA36A00EE926000EEA220F011C51EE26E3
:100590001D51ED22022A27D742E9E7CFD9FF1200E9
:1005A0001200D9CFE6FFE1CFD9FF82E9800E030127
:1005B0000215800801E1C0D0ACC1E9FFADC1EAFF7E
:1005C0000101A551EF12AEC1E9FFAFC1EAFFB5C10C
:1005D000EFFF0101AB511F0BF36EF346F346830EA1
:1005E000C214F310C26E0000000000000F0145832A
:1005F0000000000000000F014593B2C1E9FFB3C144
:10060000EAFF0101A951EF12B0C1E9FFB1C1EAFF50
:100610000101A751EF12BC6A00009E929EA2FED774
:10062000C282C2B2FED7ACC1E9FFADC1EAFF01018F
:10063000B451EF16EA6A0034FE0BE96EEA36A00EFA
:10064000E926000EEA22C3CFEEFFC4CFEDFFACC116
:10065000E9FFADC1EAFF0101A551EF120000000062
:1006600000000F0145830000000000000F014593CA
:100670000101A91D0F011C6FB2C1E9FFB3C1EAFF5F
:100680000F011C51EF160101A71D0F011C6FB0C116
:10069000E9FFB1C1EAFF0F011C51EF16BC6A00006F
:1006A0009E929EA2FED7C282C2B2FED7ACC1E9FF23
:1006B000ADC1EAFF0101B451EF16EA6A0034FE0B46
:1006C000E96EEA36A00EE926000EEA22EECF1CFF04
:1006D000EFCF1DFF0F01C3501C5DC4501D591EE21A
:1006E000EA6A0034FE0BE96EEA36A00EE926000E37
:1006F000EA220F01EE50C35C1C6FEE50C4581D6F10
:10070000EA6A0034FE0BE96EEA36A00EE926000E16
:10071000EA221CCFEEFF1DCFEDFF0DD0EA6A0034B8
:10072000FE0BE96EEA36A00EE926000EEA22C3505F
:10073000EE5EC450ED5A64D0ACC1E9FFADC1EAFF32
:100740000101A551EF12AEC1E9FFAFC1EAFFB5C18A
:10075000EFFF0101AB511F0BF36EF346F346830E1F
:10076000C214F310C26E0000000000000F014583A8
:100770000000000000000F01459300000000000091
:10078000B2C1E9FFB3C1EAFF0101A951EF12B0C143
:10079000E9FFB1C1EAFF0101A751EF12BC6A0000F5
:1007A0009E929EA2FED7C282C2B2FED7ACC1E9FF22
:1007B000ADC1EAFF0101B451EF160101A91D0F01FE
:1007C0001C6FB2C1E9FFB3C1EAFF0F011C51EF1664
:1007D0000101A71D0F011C6FB0C1E9FFB1C1EAFF04
:1007E0000F011C51EF16EA6A0034FE0BE96EEA367F
:1007F000A00EE926000EEA22C3CFEEFFC4CFEDFF24
:1008000041E9E7CFD9FF1200D9CFE6FFE1CFD9FF09
:1008100082E942E8ACC1E9FFADC1EAFF0101A5519F
:10082000EF12AEC1E9FFAFC1EAFFB5C1EFFF0F01A3
:10083000388192908980830EC2140009C26E000034
:100840000101AB511F0BF36EF346F346830EC21446
:10085000F310C26EB2C1E9FFB3C1EAFF0101A951B1
:10086000EF12B0C1E9FFB1C1EAFF0101A751EF12D8
:100870000000C282C2B2FED70101A91D0F011C6F88
:10088000B2C1E9FFB3C1EAFF0F011C51EF1601012C
:10089000A71D0F011C6FB0C1E9FFB1C1EAFF0F0135
:1008A0001C51EF16ACC1E9FFADC1EAFF0101B45123
:1008B000EF168990C350026EC450036EACC1E9FFBD
:1008C000ADC1EAFF090EE95E000EEA5A0101A55129
:1008D000EF120101A51D0F011C6FACC1E9FFADC1F5
:1008E000EAFF0F011C51EF160000ACC1E9FFADC1DA
:1008F000EAFF0101A551EF120101AB511F0BF36E8D
:10090000F346F346830EC214F310C26EB2C1E9FF80
:10091000B3C1EAFF0101A951EF12B0C1E9FFB1C1B2
:10092000EAFF0101A751EF120000C282C2B2FED756
:100930000101A51D0F011C6FACC1E9FFADC1EAFFAC
:10094000090EE95E000EEA5A0F011C51EF16ACC108
:10095000E9FFADC1EAFF0101B451EF16C3CF1CFF9F
:10096000C4CF1DFF0F01FF0ED8801C57030E1D576B
:100970000F0102501C5D026E03501D59036EACC185
:10098000E9FFADC1EAFF0101A551EF12AEC1E9FFD8
:10099000AFC1EAFFB5C1EFFF0F01388192908980A6
:1009A000830EC2140009C26E00000101AB511F0B7F
:1009B000F36EF346F346830EC214F310C26E0101C8
:1009C000A91D0F011C6FB2C1E9FFB3C1EAFF0F01FE
:1009D0001C51EF160101A71D0F011C6FB0C1E9FFEB
:1009E000B1C1EAFF0F011C51EF160000C282C2B272
:1009F000FED7B2C1E9FFB3C1EAFF0101A951EF126D
:100A0000B0C1E9FFB1C1EAFF0101A751EF12ACC1CA
:100A1000E9FFADC1EAFF0101B451EF168990EA6A1E
:100A20000034FE0BE96EEA36A00EE926000EEA223B
:100A3000C3CFEEFFC4CFEDFFACC1E9FFADC1EAFF0C
:100A4000090EE95E000EEA5A0101A551EF120101FB
:100A5000A51D0F011C6FACC1E9FFADC1EAFF0F017D
:100A60001C51EF160000ACC1E9FFADC1EAFF010166
:100A7000A551EF120101AB511F0BF36EF346F34684
:100A8000830EC214F310C26E0101A91D0F011C6F69
:100A9000B2C1E9FFB3C1EAFF0F011C51EF1601011A
:100AA000A71D0F011C6FB0C1E9FFB1C1EAFF0F0123
:100AB0001C51EF160000C282C2B2FED70101A51D73
:100AC0000F011C6FACC1E9FFADC1EAFF090EE95E81
:100AD000000EEA5A0F011C51EF16ACC1E9FFADC17F
:100AE000EAFF0101B451EF16C3CF1EFFC4CF1FFFB1
:100AF0000F01FF0ED8801E57030E1F57EA6A0034FD
:100B0000FE0BE96EEA36A00EE926000EEA22EE5050
:100B10000F011E5D0F011C6FEE500F011F590F01D9
:100B20001D6FEA6A0034FE0BE96EEA36A00EE92674
:100B3000000EEA221CCFEEFF1DCFEDFFEA6A003463
:100B4000FE0BE96EEA36A00EE926000EEA220250FC
:100B5000EE5E0350ED5A43E9E7CFD9FF12000F01D3
:100B60003B9F958E220E726E900E716E080E706E07
:100B7000220E756E766A0001006BA49AA38AA59A6C
:100B80001200D9CFE6FFE1CFD9FF84E9A6B2FED7A4
:100B90000F0102EB1CFF1D6B030E0F011C15AA6E4B
:100BA000FF0E0114A96E00EBA8FFA69EA69CA684CA
:100BB000F29E550EA76EAA0EA76EA682F28EA6947E
:100BC00041E9E7CFD9FF1200D9CFE6FFE1CFD9FF46
:100BD00083E90F0101EB1CFF1D6B030E0F011C15B8
:100BE000AA6EFF0E0014A96EA69CA69EA680A85011
:100BF00000D041E9E7CFD9FF1200D9CFE6FFE1CF1E
:100C0000D9FF81E941E8016A4D0EF36EF46AF350B1
:100C1000015C000EF4540FE20150EA6AFF0FE96E26
:100C2000020EEA22EFCFE6FF0128E66EE66AA9DFB0
:100C300043E9012AE9D74D0EE66E000EE66EE66A3C
:100C4000A0DF43E942E9E7CFD9FF1200D9CFE6FFA1
:100C5000E1CFD9FF81E941E80F014D0E1C6F1CCF98
:100C6000E6FF000EE66EE66AAFDF42E9E552E7CF47
:100C70001CFF0F011C5D1BE1010E016E4D0EF36E9A
:100C8000F46AF350015C000EF45411E20128E66EA0
:100C9000E66A9ADF42E9E66E0150EA6AFF0FE96E02
:100CA000020EEA22E552E750EF6E012AE7D742E949
:100CB000E7CFD9FF1200D9CFE6FFE1CFD9FF81E915
:100CC00041E8016A4E0EF36EF46AF350015C000EC7
:100CD000F45408E2E6680150E66EE66A52DF43E942
:100CE000012AF0D742E9E7CFD9FF1200D9CFE6FFBA
:100CF000E1CFD9FF81E94CE8026A036A046A056A18
:100D0000066A076A086A096A27EC01F0016A0C0E94
:100D1000015C01E3A6D0D950020FE96EDACFEAFFF9
:100D2000D890EF36010EEB36020EEB36030EEB36A3
:100D30000B6A0150EA6A370FE96E030EEA22EF50A0
:100D4000F76A240FF66EA80EF7220800F5500C6E15
:100D50000150EA6A370FE96E030EEA22EF500A6E7D
:100D6000050E0A5C12E20C508912A00EE66EDDEC54
:100D700054F041E980500A6E0C500A160A5002E104
:100D8000010E0B6E0C1C891653D0080E0A5C12E281
:100D90000C508D12A00EE66EDDEC54F041E984504B
:100DA0000A6E0C500A160A5002E1010E0B6E0C1C62
:100DB0008D163ED00E0E0A5C12E20C508A12A00E66
:100DC000E66EDDEC54F041E981500A6E0C500A16D3
:100DD0000A5002E1010E0B6E0C1C8A1629D0140E6B
:100DE0000A5C12E20C508B12A00EE66EDDEC54F0A1
:100DF00041E982500A6E0C500A160A5002E1010EB7
:100E00000B6E0C1C8B1614D01C0E0A5C11E20C50DD
:100E10008C12A00EE66EDDEC54F041E983500A6EB0
:100E20000C500A160A5002E1010E0B6E0C1C8C16B7
:100E30000BEB1CFF0F011D6B1E6B1F6BD950020FBC
:100E4000E96EDACFEAFF0F011C51EE120F011D51BE
:100E5000EE120F011E51EE120F011F51EE12012A68
:100E600056D727EC01F0016A090E015C01E3A4D01A
:100E7000D950060FE96EDACFEAFFD890EF36010EAF
:100E8000EB36020EEB36030EEB360B6A0150EA6AC4
:100E9000430FE96E030EEA22EF500A6E0A50070B69
:100EA0000F011C6F010E0F011C5304E0E846FE0BFE
:100EB0001C07FCE10C6E080E0A5C12E20C50891251
:100EC000A00EE66EDDEC54F041E980500A6E0C5045
:100ED0000A160A5002E1010E0B6E0C1C891653D043
:100EE000100E0A5C12E20C508A12A00EE66EDDECC7
:100EF00054F041E981500A6E0C500A160A5002E182
:100F0000010E0B6E0C1C8A163ED0180E0A5C12E203
:100F10000C508B12A00EE66EDDEC54F041E98250CD
:100F20000A6E0C500A160A5002E1010E0B6E0C1CE0
:100F30008B1629D0200E0A5C12E20C508C12A00EE7
:100F4000E66EDDEC54F041E983500A6E0C500A164F
:100F50000A5002E1010E0B6E0C1C8C1614D0240EEC
:100F60000A5C11E20C508D12A00EE66EDDEC54F01E
:100F700041E984500A6E0C500A160A5002E1010E33
:100F80000B6E0C1C8D160BEB1CFF0F011D6B1E6BEB
:100F90001F6BD950060FE96EDACFEAFF0F011C5123
:100FA000EE120F011D51EE120F011E51EE120F0134
:100FB0001F51EE12012A58D727EC01F072A2FED77A
:100FC000550E736E72A2FED7080E736E016A040E80
:100FD000015C17E272A2FED702EB73FFD950020F39
:100FE000E96EDACFEAFF080EE76ED890030EEB3217
:100FF000020EEB32010EEB32EF32E706F6E1012A88
:10100000E6D7016A040E015C17E272A2FED706EB76
:1010100073FFD950060FE96EDACFEAFF080EE76ECC
:10102000D890030EEB32020EEB32010EEB32EF32B0
:10103000E706F6E1012AE6D74DE9E7CFD9FF12002E
:101040000F01459FD59ECD90BA94B1900F01519557
:10105000C69A896A8A6A8B6A040E8C6E8D6A926857
:1010600093689468FB0E956E966812004AEC08F03F
:1010700001EC01F00801276B286B57EC4AF0E1EC1A
:061080003CF0120012001A
:0A108600010014AA00002308000076
:041090000700000055
:0C109400D9CFE6FFE1CFD9FF81E942E8A7
:1010A0000301E76B0401756B016A070E015C01E344
:1010B00004D101500B0DF3CFE9FFF4CFEAFFE80EA6
:1010C000E926030EEA22EF6A01500B0DF3CFE9FF88
:1010D000F4CFEAFFE80EE926030EEA22EE52EF6AA9
:1010E00001500B0DF3CFE9FFF4CFEAFFE80EE9263C
:1010F000030EEA22020EE926000EEA22EE6AED6AEB
:1011000001500B0DF3CFE9FFF4CFEAFFE80EE9261B
:10111000030EEA22020EE926000EEA22020EE9265A
:10112000000EEA22EE6AED6A01500B0DF3CFE9FFE3
:10113000F4CFEAFFE80EE926030EEA220A0EE926BA
:10114000000EEA22EF6A01506D0DF3CFE9FFF4CFF4
:10115000EAFF760EE926040EEA22EF6A01506D0DD1
:10116000F3CFE9FFF4CFEAFF760EE926040EEA2278
:10117000EE52EF6A01506D0DF3CFE9FFF4CFEAFFB5
:10118000760EE926040EEA22060EE926000EEA2271
:10119000EF6A026A110E025C01E38DD001506D0D01
:1011A000F3CFE9FFF4CFEAFF760EE926040EEA2238
:1011B000070EE926000EEA22E9CF1CFFEACF1DFF49
:1011C0000250060D0F010F011C51F324E96E0F01AF
:1011D0000F011D51F420EA6EEF6A01506D0DF3CF3F
:1011E000E9FFF4CFEAFF760EE926040EEA22070EA5
:1011F000E926000EEA22E9CF1CFFEACF1DFF0250CC
:10120000060D0F010F011C51F324E96E0F010F01B0
:101210001D51F420EA6EEE52EF6A01506D0DF3CFCE
:10122000E9FFF4CFEAFF760EE926040EEA22070E64
:10123000E926000EEA22E9CF1CFFEACF1DFF02508B
:10124000060D0F010F011C51F324E96E0F010F0170
:101250001D51F420EA6E020EE926000EEA22EE6A23
:10126000ED6A01506D0DF3CFE9FFF4CFEAFF760E82
:10127000E926040EEA22070EE926000EEA22E9CF4B
:101280001CFFEACF1DFF0250060D0F010F011C517C
:10129000F324E96E0F010F011D51F420EA6E020ED6
:1012A000E926000EEA22020EE926000EEA22EE6A84
:1012B000ED6A022A6FD7012AF8D643E9E7CFD9FFB2
:1012C0001200D9CFE6FFE1CFD9FF81E973E8026AC6
:1012D000036A0201FFA507D007011F0ED76F0701A0
:1012E000D86BD5EC49F021EC50F00301E76B046AB0
:1012F000056A0201FFA50BD00701200ED76F03017D
:101300000051E824010F0701D86F0701D96B016A6A
:1013100003010051015C70E201EBE6FF5BEC41F080
:1013200041E9F3CF1EFFF4CF1FFF0F01D950060F85
:101330001C6FDACF1DFF0150020D0F010F011C5170
:10134000F324E96E0F010F011D51F420EA6E1ECF48
:10135000EEFF1FCFEDFF0201FFA54CD00F01D950CA
:10136000060F1E6FDACF1FFF0150020D0F010F0194
:101370001E51F324E96E0F010F011F51F420EA6E94
:10138000EECF1CFFEFCF1DFF0F011C51E66E015089
:10139000E824010FEA6AD90FE96E070EEA22E55246
:1013A000E750EF6E0F01D950060F1E6FDACF1FFF07
:1013B0000150020D0F010F011E51F324E96E0F01C0
:1013C0000F011F51F420EA6EEECF1CFFEFCF1DFF7F
:1013D0000F011DCF1CFF1D6B0F011C51E66E01504C
:1013E000E824020FEA6AD90FE96E070EEA22E552F5
:1013F000E750EF6E012A8CD70201FFA502D0D5EC91
:1014000049F00301E7510B0DF3CFE9FFF4CFEAFFF9
:10141000E80EE926030EEA22080EE926000EEA226B
:10142000EE6AED6AFF0E045C01E1B0D3056A0EC3FB
:10143000E6FF04EBE6FF00C3E6FFD950060FE66EB9
:10144000DACFE6FFD5EC0EF045E9046EFF0E045C42
:1014500001E19BD3030102AD0AD004EBE6FF66EC89
:101460004AF041E9000903E0000E7DEF0EF0016A49
:1014700003010151015C25E2010EE66E01EBE6FF7E
:1014800004EBE6FF64EC50F043E9F3CF1EFFF4CF2A
:101490001FFF0F01D9501E0F1C6FDACF1DFF015027
:1014A000020D0F010F011C51F324E96E0F010F0112
:1014B0001D51F420EA6E1ECFEEFF1FCFEDFF012A73
:1014C000D7D7030102A70ED02050225C2150235809
:1014D00007E22250205C1E6E235021581F6E02D05E
:1014E0001E6A1F6A016A03010151015C51E2020197
:1014F000FFA54CD00F01D9501E0F1E6FDACF1FFF72
:101500000150020D0F010F011E51F324E96E0F016E
:101510000F011F51F420EA6EEECF1CFFEFCF1DFF2D
:101520000F011C51E66E0150E824020FEA6AD90F40
:10153000E96E070EEA22E552E750EF6E0F01D9502F
:101540001E0F1E6FDACF1FFF0150020D0F010F019A
:101550001E51F324E96E0F010F011F51F420EA6EB2
:10156000EECF1CFFEFCF1DFF0F011DCF1CFF1D6B2A
:101570000F011C51E66E0150E824030FEA6AD90FEF
:10158000E96E070EEA22E552E750EF6E012AABD76B
:101590000201FFA562D0016A03010151015C4EE224
:1015A0000F01D9501E0F1E6FDACF1FFF0150020D21
:1015B0000F010F011E51F324E96E0F010F011F519E
:1015C000F420EA6EEECF1CFFEFCF1DFF0F011C5180
:1015D000E66E0150E824020FEA6AD90FE96E070EA1
:1015E000EA22E552E750EF6E0F01D9501E0F1E6F31
:1015F000DACF1FFF0150020D0F010F011E51F3241E
:10160000E96E0F010F011F51F420EA6EEECF1CFFAF
:10161000EFCF1DFF0F011DCF1CFF1D6B0F011C51D4
:10162000E66E0150E824030FEA6AD90FE96E070E4F
:10163000EA22E552E750EF6E012AAED70701210EEC
:10164000D76F03010151E824020F0701D86F04EBA3
:10165000D9F70701DA6BD5EC49F0FF0E055C01E123
:1016600093D2070E0301E75D01E38ED214C3E6FFB8
:1016700005EBE6FF01C3E6FFD9501E0FE66EDACF99
:10168000E6FF93DB45E9056EFF0E055C01E17BD2C9
:10169000306A0301E7510B0DF3CFE9FFF4CFEAFF06
:1016A000E80EE926030EEA2204EBEFFF0301E751FF
:1016B0000B0DF3CFE9FFF4CFEAFFE80EE926030EA6
:1016C000EA22EE5205EBEFFF0301E7510B0DF3CFDA
:1016D000E9FFF4CFEAFFE80EE926030EEA22020E44
:1016E000E926000EEA22EE6AED6A0301E7510B0DCE
:1016F000F3CFE9FFF4CFEAFFE80EE926030EEA2272
:10170000020EE926000EEA22020EE926000EEA2267
:10171000EE6AED6A0301E7510B0DF3CFE9FFF4CF59
:10172000EAFFE80EE926030EEA220A0EE926000E79
:10173000EA22EF6A0301E7510B0DF3CFE9FFF4CF83
:10174000EAFFE80EE926030EEA22080EE926000E5B
:10175000EA22EE6AED6A0301E7510B0DF3CF1CFF9D
:10176000F4CF1DFFE80E0F011C27030E0F011D23F0
:101770001CCFE6FF1DCFE6FF33EC10F042E9016A13
:101780000301E751015C01E325D101500B0DF3CFBB
:10179000E9FFF4CFEAFFE80EE926030EEA22EECFD6
:1017A0001CFFEFCF1DFF0301E7510B0DF3CFE9FF46
:1017B000F4CFEAFFE80EE926030EEA22EF500F010C
:1017C0001C5D01E005D101500B0DF3CFE9FFF4CF13
:1017D000EAFFE80EE926030EEA22EECF1EFFEFCF66
:1017E0001FFF0301E7510B0DF3CFE9FFF4CFEAFF31
:1017F000E80EE926030EEA22EE52EF500F011F5DBC
:1018000001E0E6D0010E306E0301E7510B0DF3CF7E
:10181000E9FFF4CFEAFFE80EE926030EEA22080EFC
:10182000E926000EEA22EECF1CFFEFCF1DFF01508C
:101830000B0DF3CFE9FFF4CFEAFFE80EE926030E24
:10184000EA22080EE926000EEA220F011C51EE26BC
:101850001D51ED2201500B0DF3CFE9FFF4CFEAFF4C
:10186000E80EE926030EEA22080EE926000EEA2217
:10187000EECF1CFFEFCF1DFF01500B0DF3CFE9FFA3
:10188000F4CFEAFFE80EE926030EEA22060EE92667
:10189000000EEA22EECF20FFEFCF21FF0F01D890FC
:1018A0002133203301500B0DF3CFE9FFF4CFEAFFD2
:1018B000E80EE926030EEA22060EE926000EEA22C9
:1018C0000F010F012051EE240F011E6F0F010F01B8
:1018D0002151EE200F011F6F0F011C510F011E5DE2
:1018E0000F011D510F011F590FE201500B0DF3CFD6
:1018F000E9FFF4CFEAFFE80EE926030EEA220A0E1A
:10190000E926000EEA22EF8001500B0DF3CFE9FF2C
:10191000F4CFEAFFE80EE926030EEA22080EE926D4
:10192000000EEA22EECF1CFFEFCF1DFF01500B0D82
:10193000F3CFE9FFF4CFEAFFE80EE926030EEA222F
:10194000060EE926000EEA22EECF20FFEFCF21FFA0
:101950000F01D8902037213701500B0DF3CFE9FF4D
:10196000F4CFEAFFE80EE926030EEA22060EE92686
:10197000000EEA22EECF22FFEFCF23FF0F01D89017
:10198000233322330F010F0120510F0122250F01B4
:101990001E6F0F010F0121510F0123210F011F6F36
:1019A0000F011C510F011E5D0F011D510F011F5929
:1019B0000FE201500B0DF3CFE9FFF4CFEAFFE80E81
:1019C000E926030EEA220A0EE926000EEA22EF8239
:1019D000012AD6D6305001E0D5D00301E7510B0DD6
:1019E000F3CF1CFFF4CF1DFFE80E0F011C27030EE1
:1019F0000F011D231CCFE6FF1DCFE6FFEBEC12F01D
:101A000042E90301E7510B0DF3CFE9FFF4CFEAFF01
:101A1000E80EE926030EEA22060EE926000EEA2267
:101A2000EE50025CED50035813E20301E7510B0D39
:101A3000F3CFE9FFF4CFEAFFE80EE926030EEA222E
:101A4000060EE926000EEA22EE50026EED50036EFD
:101A50000201FFA595D007011A0ED76F0701070EE7
:101A6000D86FE7C3D9F70301E7510B0DF3CFE9FFB7
:101A7000F4CFEAFFE80EE926030EEA22EFCFDAF709
:101A80000301E7510B0DF3CFE9FFF4CFEAFFE80EB6
:101A9000E926030EEA22EE52EFCFDBF70301E7510E
:101AA0000B0DF3CFE9FFF4CFEAFFE80EE926030EB2
:101AB000EA22020EE926000EEA22EECF1CFFEECF4C
:101AC0001DFFEECF1EFFEFCF1FFF0F011C510701BF
:101AD000DC6F0301E7510B0DF3CFE9FFF4CFEAFF11
:101AE000E80EE926030EEA22020EE926000EEA229B
:101AF000EECF1CFFEFCF1DFF0F011DCF1CFF1D6B95
:101B00000F011C510701DD6F0301E7510B0DF3CFEE
:101B1000E9FFF4CFEAFFE80EE926030EEA22020EFF
:101B2000E926000EEA22EECF1CFFEECF1DFFEECF1E
:101B30001EFFEFCF1FFF0F011E510701DE6F0301D4
:101B4000E7510B0DF3CFE9FFF4CFEAFFE80EE926EA
:101B5000030EEA22020EE926000EEA22020EE92610
:101B6000000EEA22EECF1CFFEFCF1DFF0F011DCFAD
:101B70001CFF1D6B0F011C510701DF6FD5EC49F0F5
:101B80000301E72B052A69D5042A4CD4D8900332E7
:101B90000232016A0301E751015C19E201500B0DA9
:101BA000F3CFE9FFF4CFEAFFE80EE926030EEA22BD
:101BB000060EE926000EEA220250EE5C0350ED58B4
:101BC00004E201EBE6FF9DD841E9012AE3D70301D6
:101BD000E751010801E384D0016A0301E751015C88
:101BE00001E37ED001500B0DF3CFE9FFF4CFEAFF04
:101BF000E80EE926030EEA220A0EE926000EEA2282
:101C0000EF50030B6BE0316A0301E751315C66E290
:101C10000150315C61E031500B0DF3CFE9FFF4CF9F
:101C2000EAFFE80EE926030EEA22020EE926000E7C
:101C3000EA22EECFE6FFEECFE6FFEECFE6FFEECFF5
:101C4000E6FF01500B0DF3CFE9FFF4CFEAFFE80EFA
:101C5000E926030EEA22020EE926000EEA22EECF62
:101C6000E6FFEECFE6FFEECFE6FFEECFE6FF62EC5B
:101C700022F048E9F350326EF450336E01500B0DF0
:101C8000F3CFE9FFF4CFEAFFE80EE926030EEA22DC
:101C90000A0EE926000EEA22EF50020B0BE00301C8
:101CA0002051325C2151335804E231EBE6FF29D850
:101CB00041E912D020C31CFF21C31DFF0F01D890A2
:101CC0001D331C330F011C51325C1D51335804E28B
:101CD00031EBE6FF16D841E9312A96D7012A7DD7A4
:101CE0000201FFA507D007011E0ED76F0701D86BB1
:101CF000D5EC49F00301E75100D074E9E7CFD9FFF3
:101D00001200D9CFE6FFE1CFD9FF82E941E880EBAD
:101D100002F00301E751025C42E202280B0DF3CF0F
:101D2000E9FFF4CFEAFFE80EE926030EEA22EECF40
:101D30001CFFEECF1DFFEECF1EFFEECF1FFFEECF3D
:101D400020FFEECF21FFEECF22FFEECF23FFEECF1D
:101D500024FFEECF25FFEFCF26FF02500B0DF3CF70
:101D6000E9FFF4CFEAFFE80EE926030EEA221CCFD2
:101D7000EEFF1DCFEEFF1ECFEEFF1FCFEEFF20CFF9
:101D8000EEFF21CFEEFF22CFEEFF23CFEEFF24CFD9
:101D9000EEFF25CFEEFF26CFEEFF022ABAD70301D2
:101DA000E70742E9E7CFD9FF1200D9CFE6FFE1CF3D
:101DB000D9FF86E945E8010E076E086A010E096E33
:101DC0000A6A0150025C02E2FF0E11D1015067E085
:101DD0000150020D0350F324E96E0450F420EA6E22
:101DE000EECF1CFFEFCF1DFF0104020D0350F324C3
:101DF000E96E0450F420EA6EEECF1EFFEFCF1FFF16
:101E00000F011C510F011E5D0F011D510F011F59C4
:101E100024E2010E076E0150020D0350F324E96E17
:101E20000450F420EA6EEECF1EFFEFCF1FFF010437
:101E3000020D0350F324E96E0450F420EA6EEE50D4
:101E40000F011E5D0F011C6FEE500F011F590F0196
:101E50001D6F0F011C51086E22D0076A0104020D8C
:101E60000350F324E96E0450F420EA6EEECF1EFF17
:101E7000EFCF1FFF0150020D0350F324E96E045011
:101E8000F420EA6EEE500F011E5D0F011C6FEE5044
:101E90000F011F590F011D6F0F011C51086E81EBBF
:101EA00006F00250065C01E3A0D00250065C68E236
:101EB0000628020D0350F324E96E0450F420EA6E64
:101EC000EECF1CFFEFCF1DFF0650020D0350F32491
:101ED000E96E0450F420EA6EEECF1EFFEFCF1FFF35
:101EE0000F011C510F011E5D0F011D510F011F59E4
:101EF00024E2010E096E0628020D0350F324E96E58
:101F00000450F420EA6EEECF1EFFEFCF1FFF065005
:101F1000020D0350F324E96E0450F420EA6EEE50F3
:101F20000F011E5D0F011C6FEE500F011F590F01B5
:101F30001D6F0F011C510A6E22D0096A0650020D56
:101F40000350F324E96E0450F420EA6EEECF1EFF36
:101F5000EFCF1FFF0628020D0350F324E96E045053
:101F6000F420EA6EEE500F011E5D0F011C6FEE5063
:101F70000F011F590F011D6F0F011C510A6E01D077
:101F80000A6A0650020D0350F324E96E0450F4204F
:101F9000EA6EEE50005C000EED5421E2095003E0C1
:101FA0000950075C1CE1095007E00850E8240A5C6E
:101FB00002E206501CD013D007500BE0030108507A
:101FC0001A5D04E303010A501A5D02E206500FD0C5
:101FD00006D00A50E824085C02E2065008D089EBDB
:101FE00007F08AEB08F0062A5CD7FF0E00D046E91E
:101FF000E7CFD9FF1200D9CFE6FFE1CFD9FF84E9BF
:1020000042E8046A056A010E046E0050045C25E291
:102010000450020D0150F324E96E0250F420EA6EE0
:10202000EECF1CFFEFCF1DFF0550020D0150F32432
:10203000E96E0250F420EA6EEECF1EFFEFCF1FFFD5
:102040000F011C510F011E5D0F011D510F011F5982
:1020500002E284EB05F0042AD8D7055000D043E90A
:10206000E7CFD9FF1200D9CFE6FFE1CFD9FF83E94F
:102070007FE852E8036A046A010E056E126A136A69
:10208000146A156A166A1768186A196A010E1A6EB8
:102090001B6A1C6A1D6A1E6A1F68206A216A010E7B
:1020A000226E236A246A256A266A276A28682968B4
:1020B000080E2A6E2B68010E2C6E050E2D6E2E6AF0
:1020C0002F6A306A010E316E3268070E336E010ED0
:1020D000346E010E356E060E366E376A386A396A0E
:1020E0003A6AFE0E3B6E020E3C6E3D6A020E3E6E7A
:1020F000010E3F6E406A416A426AFE0E436E446AB8
:10210000030E456E020E466E476A040E486E00EBE3
:10211000E9FF01EBEAFFEE50086EED50096E010E8B
:10212000E66E09EBE6FF08EBE6FF64EC50F043E9EE
:10213000F3500A6EF4500B6E00EBE9FF01EBEAFF7F
:10214000080EE926000EEA220AEBEEFF0BEBEDFF8C
:10215000055001E117D2010E046E090E045C10E275
:102160000F01D950490F1C6FDACF1DFF04500F012A
:10217000EA6A1C25E96E1D51EA22EF6A042AEDD7AE
:10218000010E496E126A056A055001E0FAD1060E89
:10219000125C01E3F6D1020E125C0CE14C504A14C1
:1021A0004E6E4A504D144F6E4D504B14506E4B5066
:1021B0004C14516E046A030E045C01E30DD100EB74
:1021C000E9FF01EBEAFFEE50066EED50076E0F01DE
:1021D000D950130F1E6FDACF1FFF1250090D0F01D8
:1021E0000F011E51F3240F011C6F0F010F011F512E
:1021F000F4200F011D6F0450030D0F010F011C513E
:10220000F324E96E0F010F011D51F420EA6EEF5027
:1022100006260F01D950130F1E6FDACF1FFF125081
:10222000090D0F010F011E51F3240F011C6F0F0147
:102230000F011F51F4200F011D6F0450030D0F01FA
:102240000F011C51F324E96E0F010F011D51F42001
:10225000EA6EE92A000EEA22EF5007260F01D95054
:102260000C0F1C6FDACF1DFF0450020D0F010F0180
:102270001C51F324E96E0F010F011D51F420EA6E89
:10228000EE6AED6A0F01D950490F1C6FDACF1DFFBE
:102290000F01D950130F226FDACF23FF1250090D0F
:1022A0000F010F012251F3240F01206F0F010F01C5
:1022B0002351F4200F01216F0450030D0F010F0172
:1022C0002051F324E96E0F010F012151F420EA6E31
:1022D000020EE926000EEA22EFCF1EFF0F011F6B50
:1022E0001EBF1F690F010F011C510F011E25E96E52
:1022F0000F010F011D510F011F21EA6EEF502BE05E
:1023000003010051065C27E203010151075C23E24F
:10231000010EE66E07EBE6FF06EBE6FF64EC50F01D
:1023200043E9F3CF1EFFF4CF1FFF0F01D9500C0F6D
:102330001C6FDACF1DFF0450020D0F010F011C515D
:10234000F324E96E0F010F011D51F420EA6E1ECF38
:10235000EEFF1FCFEDFF020E125C3CE204503AE0AC
:102360008CEB52F08DEB53F00F01D89053301D6F72
:1023700052301C6FD8901D331C330F011C51525E1C
:102380001D51535A0F01D9500C0F1C6FDACF1DFF8E
:102390000450020D0F010F011C51F324E96E0F01CF
:1023A0000F011D51F420EA6EEE50525CED5053586F
:1023B00011E20F01D950490F1C6FDACF1DFF1250E7
:1023C000E82404240F01EA6A1C25E96E1D51EA2263
:1023D000010EEF6E042AEFD6030EE66ED9500C0FF5
:1023E000E66EDACFE6FF07DE43E9056E055001E150
:1023F000C6D00F01D950130F1F6FDACF20FF125034
:10240000090D0F010F011F51F3240F011D6F0F0163
:102410000F012051F4200F011E6F0550030D0F0115
:102420000F011D51F324E96E0F010F011E51F4201D
:10243000EA6EEFCF1CFF00EBE9FF01EBEAFF0F01B3
:102440001C51EF260F01D950130F1F6FDACF20FF59
:102450001250090D0F010F011F51F3240F011D6FC1
:102460000F010F012051F4200F011E6F0550030DC5
:102470000F010F011D51F324E96E0F010F011E51D1
:10248000F420EA6EE92A000EEA22EFCF1CFF00EBEF
:10249000E9FF01EBEAFFEE520F011C51EF26010E9E
:1024A000E66E00EBE9FF01EBEAFFEE52EFCFE6FF4D
:1024B00000EBE9FF01EBEAFFEFCFE6FF64EC50F041
:1024C00043E9F3CF1CFFF4CF1DFF00EBE9FF01EB65
:1024D000EAFF060EE926000EEA221CCFEEFF1DCF12
:1024E000EDFF010E036E0201FFA549D00701240E86
:1024F000D76F0701080ED86F08EBD9F709EBDAF7A9
:102500000F010BEB1CFF1D6B0F011C510701DB6F53
:10251000FF0E0A140701DC6F00EBE9FF01EBEAFF95
:10252000EFCFDDF700EBE9FF01EBEAFFEE52EFCF73
:10253000DEF700EBE9FF01EBEAFF060EE926000EED
:10254000EA22EECF1CFFEFCF1DFF0F011DCF1CFFB6
:102550001D6B0F011C510701DF6F00EBE9FF01EB61
:10256000EAFF060EE926000EEA22EECF1CFFEFCFAF
:102570001DFF0F011C510701E06FD5EC49F0122A35
:1025800003D6E6D5010EE66E00EBE9FF01EBEAFFAC
:10259000EE52EFCFE6FF00EBE9FF01EBEAFFEFCFF2
:1025A000E6FF64EC50F043E9F3CF1CFFF4CF1DFFCE
:1025B00000EBE9FF01EBEAFF060EE926000EEA2236
:1025C0001CCFEEFF1DCFEDFF035000D07FE953E994
:1025D000E7CFD9FF1200D9CFE6FFE1CFD9FF83E9DA
:1025E0004EE8076A086A096A0A6A0B6A0C6A0D6A89
:1025F0000E6A0F6A106A00EBE9FF01EBEAFFEF5089
:10260000036E00EBE9FF01EBEAFFEE52EF50046EC0
:10261000E66A04EBE6FF03EBE6FF64EC50F043E907
:10262000F350076EF450086E00EBE9FF01EBEAFF90
:10263000060EE926000EEA2207EBEEFF08EBEDFF9F
:1026400003500CE0E66A04EBE6FF0304E66E64EC7C
:1026500050F043E9F3500D6EF4500E6E0301000587
:10266000035C0CE0E66A04EBE6FF0328E66E64EC2C
:1026700050F043E9F350096EF4500A6E080E03015E
:1026800002152EE0020E045C2BE204500EE1E66A15
:10269000020E0424E66E03EBE6FF64EC50F043E91F
:1026A000F3500B6EF4500C6E0CD0E66A0428E66E04
:1026B00003EBE6FF64EC50F043E9F3500B6EF4508B
:1026C0000C6E07500B5C08500C5807E20B50075C6F
:1026D0000F6E0C500858106E02D00F6A106A1ED090
:1026E00004500CE0E66A0404E66E03EBE6FF64ECDB
:1026F00050F043E9F3500F6EF450106E03010105E2
:10270000045C0CE0E66A0428E66E03EBE6FF64EC8A
:1027100050F043E9F3500B6EF4500C6E035006E199
:102720000950075C0D6E0A5008580E6E0301000533
:10273000035C06E10D50075C096E0E5008580A6EE6
:10274000045006E10B50075C0F6E0C500858106ED9
:1027500003010105045C06E10F50075C0B6E10508D
:1027600008580C6E00EBE9FF01EBEAFFEF50E66E54
:1027700000EBE9FF01EBEAFF020EE926000EEA2278
:10278000E552E750EE6EED6A00EBE9FF01EBEAFF80
:10279000020EE926000EEA22070ED890EE36ED363C
:1027A000E806FBE100EBE9FF01EBEAFF020EE92698
:1027B000000EEA22100EEE26000EED22080E030196
:1027C000021513E0020E045C10E200EBE9FF01EBDE
:1027D000EAFF020EE926000EEA22020EE926000EAA
:1027E000EA22600EEE6EED6A3BD000EBE9FF01EBF2
:1027F000EAFFE92A000EEA22EF50E66E00EBE9FF5D
:1028000001EBEAFF020EE926000EEA22020EE9269B
:10281000000EEA22E552E750EE6EED6A00EBE9FFAA
:1028200001EBEAFF020EE926000EEA22020EE9267B
:10283000000EEA22070ED890EE36ED36E806FBE1F0
:1028400000EBE9FF01EBEAFF020EE926000EEA22A7
:10285000020EE926000EEA22100EEE26000EED22F0
:102860000D50095C0E500A5801E2AAD10F500B5CC2
:1028700010500C5801E2C2D00F010D50075C226FBE
:102880000E500858236F22CFE6FF23CFE6FF0F013B
:102890000950075C206F0A500858216F060E20CFA0
:1028A0001EFF21CF1FFF000A06E00F01D8901E3740
:1028B0001F37E804FBE11ECFE6FF1FCFE6FF11EC58
:1028C00053F0E552E5CF1DFFE7CF1CFF0F01400E8F
:1028D000D8801C57000E1D570F011C51056E055066
:1028E0000F011C6F1D6B00EBE9FF01EBEAFF020E0D
:1028F000E926000EEA220F011C51EE261D51ED22A1
:10290000080E0301021531E0020E045C2EE20F01F5
:102910000F50075C206F10500858216F20CFE6FF42
:1029200021CFE6FF0F010B50075C1E6F0C500858BB
:102930001F6F0F011F311E311F6F1E6B01E31E8FB2
:102940001ECFE6FF1FCFE6FF11EC53F0E552E5CFB7
:102950001DFFE7CF1CFF0F01800ED8801C57000E13
:102960001D570F011C51066E33D00F010F50075C2D
:10297000226F10500858236F22CFE6FF23CFE6FFC7
:102980000F010B50075C206F0C500858216F060E8A
:1029900020CF1EFF21CF1FFF000A06E00F01D890B5
:1029A0001E371F37E804FBE11ECFE6FF1FCFE6FF0F
:1029B00011EC53F0E552E5CF1DFFE7CF1CFF0F01EF
:1029C000400ED8801C57000E1D570F011C51066E7B
:1029D00006500F011C6F1D6B00EBE9FF01EBEAFFD6
:1029E000020EE926000EEA22020EE926000EEA2275
:1029F0000F011C51EE261D51ED22E1D00F010D50AB
:102A0000075C226F0E500858236F22CFE6FF23CFBA
:102A1000E6FF0F010950075C206F0A500858216F2C
:102A2000060E20CF1EFF21CF1FFF000A06E00F0178
:102A3000D8901E371F37E804FBE11ECFE6FF1FCFFB
:102A4000E6FF11EC53F0E552E5CF1DFFE7CF1CFF89
:102A50000F01400ED8801C57000E1D570F011C514E
:102A6000056E05500F011C6F1D6B00EBE9FF01EBBC
:102A7000EAFF020EE926000EEA220F011C51EE26A3
:102A80001D51ED22080E0301021531E0020E045C17
:102A90002EE20F010B50075C206F0C500858216F7D
:102AA00020CFE6FF21CFE6FF0F010F50075C1E6F1E
:102AB000105008581F6F0F011F311E311F6F1E6B02
:102AC00001E31E8F1ECFE6FF1FCFE6FF11EC53F090
:102AD000E552E5CF1DFFE7CF1CFF0F01800ED88028
:102AE0001C57000E1D570F011C51066E33D00F01ED
:102AF0000B50075C226F0C500858236F22CFE6FF63
:102B000023CFE6FF0F010F50075C206F10500858CD
:102B1000216F060E20CF1EFF21CF1FFF000A06E007
:102B20000F01D8901E371F37E804FBE11ECFE6FFE8
:102B30001FCFE6FF11EC53F0E552E5CF1DFFE7CFC5
:102B40001CFF0F01400ED8801C57000E1D570F01AF
:102B50001C51066E00EBE9FF01EBEAFF020EE926CD
:102B6000000EEA22020EE926000EEA22EE50065C72
:102B7000000EED5416E206500F011C6F1D6B00EBAA
:102B8000E9FF01EBEAFF020EE926000EEA22020E3F
:102B9000E926000EEA220F011C51EE5E1D51ED5A8E
:102BA0000ED000EBE9FF01EBEAFF020EE926000E72
:102BB000EA22020EE926000EEA22EE6AED6AA9D1A7
:102BC0000F500B5C10500C5801E2C2D00F0109509D
:102BD000075C226F0A500858236F22CFE6FF23CFED
:102BE000E6FF0F010D50075C206F0E500858216F53
:102BF000060E20CF1EFF21CF1FFF000A06E00F01A7
:102C0000D8901E371F37E804FBE11ECFE6FF1FCF29
:102C1000E6FF11EC53F0E552E5CF1DFFE7CF1CFFB7
:102C20000F01400ED8801C57000E1D570F011C517C
:102C3000056E05500F011C6F1D6B00EBE9FF01EBEA
:102C4000EAFF020EE926000EEA220F011C51EE5E99
:102C50001D51ED5A080E0301021531E0020E045C0D
:102C60002EE20F010F50075C206F10500858216FA3
:102C700020CFE6FF21CFE6FF0F010B50075C1E6F50
:102C80000C5008581F6F0F011F311E311F6F1E6B34
:102C900001E31E8F1ECFE6FF1FCFE6FF11EC53F0BE
:102CA000E552E5CF1DFFE7CF1CFF0F01800ED88056
:102CB0001C57000E1D570F011C51066E33D00F011B
:102CC0000F50075C226F10500858236F22CFE6FF89
:102CD00023CFE6FF0F010B50075C206F0C50085804
:102CE000216F060E20CF1EFF21CF1FFF000A06E036
:102CF0000F01D8901E371F37E804FBE11ECFE6FF17
:102D00001FCFE6FF11EC53F0E552E5CF1DFFE7CFF3
:102D10001CFF0F01400ED8801C57000E1D570F01DD
:102D20001C51066E06500F011C6F1D6B00EBE9FF76
:102D300001EBEAFF020EE926000EEA22020EE92666
:102D4000000EEA220F011C51EE261D51ED22E1D0AA
:102D50000F010950075C226F0A500858236F22CFD9
:102D6000E6FF23CFE6FF0F010D50075C206F0E50EA
:102D70000858216F060E20CF1EFF21CF1FFF000A2B
:102D800006E00F01D8901E371F37E804FBE11ECF85
:102D9000E6FF1FCFE6FF11EC53F0E552E5CF1DFF34
:102DA000E7CF1CFF0F01400ED8801C57000E1D57A7
:102DB0000F011C51056E05500F011C6F1D6B00EBC0
:102DC000E9FF01EBEAFF020EE926000EEA220F01FD
:102DD0001C51EE5E1D51ED5A080E0301021531E043
:102DE000020E045C2EE20F010B50075C206F0C50AA
:102DF0000858216F20CFE6FF21CFE6FF0F010F50CB
:102E0000075C1E6F105008581F6F0F011F311E31D5
:102E10001F6F1E6B01E31E8F1ECFE6FF1FCFE6FF65
:102E200011EC53F0E552E5CF1DFFE7CF1CFF0F017A
:102E3000800ED8801C57000E1D570F011C51066EC6
:102E400033D00F010B50075C226F0C500858236FD2
:102E500022CFE6FF23CFE6FF0F010F50075C206F64
:102E600010500858216F060E20CF1EFF21CF1FFFE4
:102E7000000A06E00F01D8901E371F37E804FBE177
:102E80001ECFE6FF1FCFE6FF11EC53F0E552E5CF72
:102E90001DFFE7CF1CFF0F01400ED8801C57000E0E
:102EA0001D570F011C51066E00EBE9FF01EBEAFF15
:102EB000020EE926000EEA22020EE926000EEA22A0
:102EC000EE50065C000EED5416E206500F011C6F2A
:102ED0001D6B00EBE9FF01EBEAFF020EE926000E95
:102EE000EA22020EE926000EEA220F011C51EE5ED4
:102EF0001D51ED5A0ED000EBE9FF01EBEAFF020E87
:102F0000E926000EEA22020EE926000EEA22EE6A07
:102F1000ED6A0201FFA558D00701300ED76F0701F7
:102F2000060ED86F0F010AEB1CFF1D6B0F011C5121
:102F30000701D96FFF0E09140701DA6F0F0108EBC3
:102F40001CFF1D6B0F011C510701DB6FFF0E0714E7
:102F50000701DC6F0F010EEB1CFF1D6B0F011C51F5
:102F60000701DD6FFF0E0D140701DE6FD5EC49F090
:102F70000701310ED76F0701060ED86F0F010CEB5A
:102F80001CFF1D6B0F011C510701D96FFF0E0B14A5
:102F90000701DA6F0F0108EB1CFF1D6B0F011C51BD
:102FA0000701DB6FFF0E07140701DC6F0F0110EB49
:102FB0001CFF1D6B0F011C510701DD6FFF0E0F146D
:102FC0000701DE6FD5EC49F0000E00D04FE9E7CFE6
:102FD000D9FF1200D9CFE6FFE1CFD9FF81E947E859
:102FE0000A0E046E070E056E016A080E015C23E2EC
:102FF000026A080E025C16E20250080DF3CF1CFFB5
:10300000F4CF1DFF350E0F011C27040E0F011D23E9
:1030100001500F01EA6A1C25E96E1D51EA22EF6892
:10302000022AE7D70150EA6A6D0FE96E040EEA2220
:10303000EF6A012ADAD70201FFA599D10301E7510E
:10304000000805E304017551000801E390D1070170
:10305000270ED76F0701030ED86F0701010ED96F36
:10306000E7C3DAF775C4DBF7D5EC49F0036A03016F
:10307000E751035C01E3A4D00701270ED76F0701D6
:10308000090ED86F0701020ED96F03EBDAF7035070
:103090000B0DF3CFE9FFF4CFEAFFE80EE926030EAC
:1030A000EA22EFCFDBF703500B0DF3CFE9FFF4CFAC
:1030B000EAFFE80EE926030EEA22EE52EFCFDCF734
:1030C00003500B0DF3CFE9FFF4CFEAFFE80EE9263A
:1030D000030EEA22020EE926000EEA22EECF1CFFC2
:1030E000EECF1DFFEECF1EFFEFCF1FFF0F011C51D4
:1030F0000701DD6F03500B0DF3CFE9FFF4CFEAFFBB
:10310000E80EE926030EEA22020EE926000EEA2264
:10311000EECF1CFFEFCF1DFF0F011DCF1CFF1D6B5E
:103120000F011C510701DE6F03500B0DF3CFE9FFB8
:10313000F4CFEAFFE80EE926030EEA22020EE926A2
:10314000000EEA22EECF1CFFEECF1DFFEECF1EFFDA
:10315000EFCF1FFF0F011E510701DF6F03500B0D53
:10316000F3CFE9FFF4CFEAFFE80EE926030EEA22E7
:10317000020EE926000EEA22020EE926000EEA22DD
:10318000EECF1CFFEFCF1DFF0F011DCF1CFF1D6BEE
:103190000F011C510701E06F03500B0DF3CFE9FF46
:1031A000F4CFEAFFE80EE926030EEA22060EE9262E
:1031B000000EEA22EFCFE1F7D5EC49F0032A57D70A
:1031C000036A070E035C01E3D2D003506D0DF3CF09
:1031D000E9FFF4CFEAFF760EE926040EEA22EF506B
:1031E00001E1C3D00701270ED76F07010A0ED86F80
:1031F0000701030ED96F03EBDAF703506D0DF3CF20
:10320000E9FFF4CFEAFF760EE926040EEA22EFCFBB
:10321000DBF703506D0DF3CFE9FFF4CFEAFF760E35
:10322000E926040EEA22EE52EFCFDCF703506D0DD3
:10323000F3CFE9FFF4CFEAFF760EE926040EEA2287
:10324000070EE926000EEA22EFCFDDF703506D0DE1
:10325000F3CFE9FFF4CFEAFF760EE926040EEA2267
:10326000070EE926000EEA22EE52EFCFDEF70350FA
:103270006D0DF3CFE9FFF4CFEAFF760EE926040ED9
:10328000EA22070EE926000EEA22020EE926000EC7
:10329000EA22EECF1CFFEECF1DFFEECF1EFFEFCFD9
:1032A0001FFF0F011C510701DF6F03506D0DF3CF9E
:1032B000E9FFF4CFEAFF760EE926040EEA22070EB4
:1032C000E926000EEA22020EE926000EEA22EECFDF
:1032D0001CFFEFCF1DFF0F011DCF1CFF1D6B0F014A
:1032E0001C510701E06F03506D0DF3CFE9FFF4CFE0
:1032F000EAFF760EE926040EEA22070EE926000E02
:10330000EA22020EE926000EEA22EECF1CFFEECFE3
:103310001DFFEECF1EFFEFCF1FFF0F011E51070154
:10332000E16F03506D0DF3CFE9FFF4CFEAFF760EA6
:10333000E926040EEA22070EE926000EEA22020E12
:10334000E926000EEA22020EE926000EEA22EECF5E
:103350001CFFEFCF1DFF0F011DCF1CFF1D6B0F01C9
:103360001C510701E26FD5EC49F0032A2AD7016A04
:10337000070E015C01E3C3D001506D0DF3CFE9FFEF
:10338000F4CFEAFF760EE926040EEA22EF5001E1BF
:10339000B4D001506D0DF3CFE9FFF4CFEAFF760E04
:1033A000E926040EEA22EF50050801E1A6D0026AE0
:1033B0000301E751025C01E3A0D002EBE6FF01EB61
:1033C000E6FFFCEC21F042E9E66E0250080DF3CF77
:1033D0001CFFF4CF1DFF350E0F011C27040E0F013B
:1033E0001D2301500F01EA6A1C25E96E1D51EA22D6
:1033F000E552E750EF6E0201FFA530D00701270E1E
:10340000D76F0701050ED86F0701050ED96F01EBC5
:10341000DAF701506D0DF3CFE9FFF4CFEAFF760E36
:10342000E926040EEA22EFCFDBF702EBDCF70250CD
:10343000080DF3CF1CFFF4CF1DFF350E0F011C2725
:10344000040E0F011D2301500F01EA6A1C25E96ECD
:103450001D51EA22EFCFDDF7D5EC49F00250080DFF
:10346000F3CF1DFFF4CF1EFF350E0F011D27040EF5
:103470000F011E2301500F01EA6A1D25E96E1E513E
:10348000EA22EFCF1CFF0250080DF3CFE9FFF4CF83
:10349000EAFF350EE926040EEA22070EE926000EA1
:1034A000EA22EF500F011C5D26E20250080DF3CF17
:1034B0001CFFF4CF1DFF350E0F011C27040E0F015A
:1034C0001D2301500F01EA6A1C25E96E1D51EA22F5
:1034D000EF50E66E0250080DF3CFE9FFF4CFEAFF9C
:1034E000350EE926040EEA22070EE926000EEA222E
:1034F000E552E750EF6E022A5BD7012A39D7030E57
:103500000401755D02E30401746B016A070E015C3E
:1035100062E201506D0DF3CFE9FFF4CFEAFF760EC2
:10352000E926040EEA22EF5054E001506D0DF3CF6E
:10353000E9FFF4CFEAFF760EE926040EEA22EF5007
:10354000050847E0026A0301E751025C42E20250CB
:10355000080DF3CF1DFFF4CF1EFF350E0F011D2701
:10356000040E0F011E2301500F01EA6A1D25E96EAA
:103570001E51EA22EFCF1CFF03011B510F011C5DFE
:1035800026E20250080DF3CFE9FFF4CFEAFF350E33
:10359000E926040EEA22070EE926000EEA22EFCF02
:1035A0001EFF0250080DF3CF1CFFF4CF1DFF350E98
:1035B0000F011C27040E0F011D2301500F01EA6AA1
:1035C0001C25E96E1D51EA220F011E51EF5E022AF1
:1035D000BAD7012A9BD7055001E1F6D20450040660
:1035E000000801E3F1D20201FFA5ACD00701270ECC
:1035F000D76F0701030ED86F0701070ED96FE7C316
:10360000DAF775C4DBF7030E036E0301E751000818
:1036100005E304017551000801E394D0016A070E27
:10362000015C61E201506D0DF3CFE9FFF4CFEAFFD9
:10363000760EE926040EEA22EF5053E001506D0D9C
:10364000F3CFE9FFF4CFEAFF760EE926040EEA2273
:10365000EF50050846E0020E0301E7250701D827D1
:103660000350032AEA6AD90FE96E070EEA2201EB3A
:10367000EFFF026A0301E751025C21E20250080DEC
:10368000F3CF1CFFF4CF1DFF350E0F011C27040ED6
:103690000F011D2301500F01EA6A1C25E96E1D511F
:1036A000EA22EF50E66E0350032AEA6AD90FE96E68
:1036B000070EEA22E552E750EF6E022ADBD70150EF
:1036C000EA6A6D0FE96E040EEA22EF50E66E0350CF
:1036D000032AEA6AD90FE96E070EEA22E552E7509B
:1036E000EF6E012A9CD70301E7290701D827026A58
:1036F0000301E751025C1CE20250080DF3CFE9FF21
:10370000F4CFEAFF350EE926040EEA22070EE92679
:10371000000EEA22EF50E66E0350032AEA6AD90F40
:10372000E96E070EEA22E552E750EF6E022AE0D773
:103730000350032AEA6AD90FE96E070EEA22EF68FE
:10374000D5EC49F0036A070E035C09E20350EA6A0C
:103750006D0FE96E040EEA22EF6A032AF4D7016ABC
:10376000070E015C01E3BFD001506D0DF3CFE9FFFF
:10377000F4CFEAFF760EE926040EEA22EF5001E1CB
:10378000B0D001506D0DF3CFE9FFF4CFEAFF760E14
:10379000E926040EEA22EF50050801E1A2D0026AF0
:1037A0000301E751025C01E39CD00250080DF3CF06
:1037B0001CFFF4CF1DFF350E0F011C27040E0F0157
:1037C0001D2301500F01EA6A1C25E96E1D51EA22F2
:1037D000EF5001E084D00150EA6A6D0FE96E040EEB
:1037E000EA22EF50000874E2040175510301D88009
:1037F000E7556EE2036A0250035C63E20350080D72
:10380000F3CF1CFFF4CF1DFF350E0F011C27040E54
:103810000F011D2301500F01EA6A1C25E96E1D519D
:10382000EA22EF504CE10250080DF3CFE9FFF4CF4C
:10383000EAFF350EE926040EEA22070EE926000EFD
:10384000EA22EFCF1CFF0350080DF3CFE9FFF4CFBE
:10385000EAFF350EE926040EEA22070EE926000EDD
:10386000EA22EF500F01D8801C5515E20250080DD6
:10387000F3CF1CFFF4CF1DFF350E0F011C27040EE4
:103880000F011D2301500F01EA6A1C25E96E1D512D
:10389000EA22EF2A14D00350080DF3CF1CFFF4CF17
:1038A0001DFF350E0F011C27040E0F011D230150B3
:1038B0000F01EA6A1C25E96E1D51EA22EF2A032A4C
:1038C0009AD70150EA6A6D0FE96E040EEA22EF06FC
:1038D0000150EA6A6D0FE96E040EEA22EF2A022A0D
:1038E0005FD7012A3DD7036A070E035C11E203503C
:1038F000080DF3CFE9FFF4CFEAFF350EE926040EF9
:10390000EA22070EE926000EEA22EF68032AECD726
:10391000056A016A070E015C01E355D101506D0D86
:10392000F3CFE9FFF4CFEAFF760EE926040EEA2290
:10393000EF5001E146D101506D0DF3CFE9FFF4CF17
:10394000EAFF760EE926040EEA22EF50050801E1AF
:1039500038D10150EA6A6D0FE96E040EEA22EF5089
:10396000010801E32ED1052A026A0301E751025C36
:1039700001E386D00250080DF3CF1CFFF4CF1DFFEA
:10398000350E0F011C27040E0F011D2301500F01DE
:10399000EA6A1C25E96E1D51EA22EF506FE1036AC5
:1039A000070E035C6BE203506D0DF3CFE9FFF4CF1C
:1039B000EAFF760EE926040EEA22EF505DE003509E
:1039C0006D0DF3CFE9FFF4CFEAFF760EE926040E82
:1039D000EA22EF50050850E00150035C4DE0025030
:1039E000080DF3CF1DFFF4CF1EFF350E0F011D276D
:1039F000040E0F011E2303500F01EA6A1D25E96E14
:103A00001E51EA22EFCF1CFF0250080DF3CFE9FF51
:103A1000F4CFEAFF350EE926040EEA22070EE92666
:103A2000000EEA22EF500F011C5D26E20250080D45
:103A3000F3CF1CFFF4CF1DFF350E0F011C27040E22
:103A40000F011D2303500F01EA6A1C25E96E1D5169
:103A5000EA22EF50E66E0250080DF3CFE9FFF4CFF3
:103A6000EAFF350EE926040EEA22070EE926000ECB
:103A7000EA22E552E750EF6E032A92D7022A75D761
:103A8000036A026A0301E751025C26E20250080D54
:103A9000F3CFE9FFF4CFEAFF350EE926040EEA2260
:103AA000070EE926000EEA22EFCF1CFF0350080D97
:103AB000F3CFE9FFF4CFEAFF350EE926040EEA2240
:103AC000070EE926000EEA22EF500F011C5D02E20C
:103AD00082EB03F0022AD6D70350080DF3CF1CFF68
:103AE000F4CF1DFF350E0F011C27040E0F011D23FF
:103AF00001500F01EA6A1C25E96E1D51EA22EF68A8
:103B000083EB02F0036A070E035C5BE203506D0D6A
:103B1000F3CFE9FFF4CFEAFF760EE926040EEA229E
:103B2000EF504DE003506D0DF3CFE9FFF4CFEAFF06
:103B3000760EE926040EEA22EF50050840E0025016
:103B4000080DF3CF1DFFF4CF1EFF350E0F011D270B
:103B5000040E0F011E2303500F01EA6A1D25E96EB2
:103B60001E51EA22EFCF1CFF03011B510F011C5D08
:103B700026E20250080DF3CFE9FFF4CFEAFF350E3D
:103B8000E926040EEA22070EE926000EEA22EFCF0C
:103B90001EFF0250080DF3CF1CFFF4CF1DFF350EA2
:103BA0000F011C27040E0F011D2303500F01EA6AA9
:103BB0001C25E96E1D51EA220F011E51EF5E032AFA
:103BC000A2D7012AA7D607D5036A070E035C18E21D
:103BD0000350080DF3CFE9FFF4CFEAFF350EE926D5
:103BE000040EEA22070EE926000EEA22EF680350CF
:103BF000EA6A6D0FE96E040EEA22EF68032AE5D740
:103C00000401746B016A070E015C01E341D10150AC
:103C10006D0DF3CFE9FFF4CFEAFF760EE926040E2F
:103C2000EA22EF5001E132D101506D0DF3CFE9FFEF
:103C3000F4CFEAFF760EE926040EEA22EF500508DB
:103C400001E124D1026A0301E751025C01E31ED1C4
:103C50000250080DF3CF1CFFF4CF1DFF350E0F01EE
:103C60001C27040E0F011D2301500F01EA6A1C25B9
:103C7000E96E1D51EA22EF5001E006D10250080D15
:103C8000F3CFE9FFF4CFEAFF350EE926040EEA226E
:103C9000070EE926000EEA2201EBEFFF0150EA6A67
:103CA0006D0FE96E040EEA2202EBEFFF0401742BA4
:103CB000100E036E035056E001506D0DF3CFE9FF77
:103CC000F4CFEAFF760EE926040EEA22070EE92673
:103CD000000EEA22E9CF24FFEACF25FF0304060DF8
:103CE0000F010F012451F324E96E0F010F0125513B
:103CF000F420EA6EEECF1EFFEECF1FFFEECF20FFC7
:103D0000EECF21FFEECF22FFEFCF23FF01506D0D4D
:103D1000F3CFE9FFF4CFEAFF760EE926040EEA229C
:103D2000070EE926000EEA22E9CF1CFFEACF1DFFAD
:103D30000350060D0F010F011C51F324E96E0F0112
:103D40000F011D51F420EA6E1ECFEEFF1FCFEEFFD4
:103D500020CFEEFF21CFEEFF22CFEEFF23CFEEFFED
:103D60000306A8D702500B0DF3CFE9FFF4CFEAFF0B
:103D7000E80EE926030EEA22020EE926000EEA22E8
:103D8000EECF1CFFEECF1DFFEECF1EFFEFCF1FFFCC
:103D900001506D0DF3CFE9FFF4CFEAFF760EE9266F
:103DA000040EEA22070EE926000EEA22020EE92698
:103DB000000EEA221CCFEEFF1DCFEEFF1ECFEEFF5E
:103DC0001FCFEEFF02500B0DF3CFE9FFF4CFEAFF58
:103DD000E80EE926030EEA22EECF1CFFEFCF1DFF0F
:103DE00001506D0DF3CFE9FFF4CFEAFF760EE9261F
:103DF000040EEA22070EE926000EEA221CCFEEFF8F
:103E00001DCFEDFF01506D0DF3CFE9FFF4CFEAFFB9
:103E1000760EE926040EEA22060EE926000EEA22B4
:103E2000EF2A01506D0DF3CFE9FFF4CFEAFF760ED4
:103E3000E926040EEA22060EE926000EEA22EF50D9
:103E4000100810E201506D0DF3CFE9FFF4CFEAFF47
:103E5000760EE926040EEA22060EE926000EEA2274
:103E6000100EEF6E0201FFA50FD00701270ED76FCE
:103E70000701030ED86F0701090ED96F02EBDAF7BD
:103E800001EBDBF7D5EC49F0022ADDD6012ABBD6DF
:103E9000026A0301E751025C01E3D7D10250080D29
:103EA000F3CFE9FFF4CFEAFF350EE926040EEA224C
:103EB000070EE926000EEA22EF50FF0801E0C3D109
:103EC000016A036A070E035C01E3DBD003506D0D4A
:103ED000F3CFE9FFF4CFEAFF760EE926040EEA22DB
:103EE000EF5001E1CCD003506D0DF3CFE9FFF4CFDB
:103EF000EAFF760EE926040EEA22EF50050801E1FA
:103F0000BED003506D0DF3CFE9FFF4CFEAFF760E7C
:103F1000E926040EEA22070EE926000EEA22020E26
:103F2000E926000EEA22EE50066EED50076E0250B2
:103F30000B0DF3CFE9FFF4CFEAFFE80EE926030EFD
:103F4000EA22020EE926000EEA220650EE5C075035
:103F5000ED5813E202500B0DF3CFE9FFF4CFEAFF67
:103F6000E80EE926030EEA22020EE926000EEA22F6
:103F7000EE50065EED50075A14D002500B0DF3CFF1
:103F8000E9FFF4CFEAFFE80EE926030EEA22020E6B
:103F9000E926000EEA220650EE5C066E0750ED5848
:103FA000076E03011C51065C000E075868E20350BF
:103FB0006D0DF3CFE9FFF4CFEAFF760EE926040E8C
:103FC000EA22070EE926000EEA22020EE926000E7A
:103FD000EA22020EE926000EEA22EE50066EED50AD
:103FE000076E02500B0DF3CFE9FFF4CFEAFFE80EA6
:103FF000E926030EEA22020EE926000EEA22020E4C
:10400000E926000EEA220650EE5C0750ED5817E252
:1040100002500B0DF3CFE9FFF4CFEAFFE80EE926DB
:10402000030EEA22020EE926000EEA22020EE9261B
:10403000000EEA22EE50065EED50075A18D00250EC
:104040000B0DF3CFE9FFF4CFEAFFE80EE926030EEC
:10405000EA22020EE926000EEA22020EE926000EEE
:10406000EA220650EE5C066E0750ED58076E03011B
:104070001C51065C000E075802E2070E016E032A6F
:1040800021D7070E015C0EE201506D0DF3CFE9FF61
:10409000F4CFEAFF760EE926040EEA22EF5002E0A2
:1040A000012AEFD7070E015C01E3CDD00201FFA585
:1040B0000FD00701270ED76F0701030ED86F070136
:1040C000040ED96F02EBDAF701EBDBF7D5EC49F020
:1040D00001506D0DF3CFE9FFF4CFEAFF760EE9262C
:1040E000040EEA22010EEF6E01506D0DF3CFE9FFD1
:1040F000F4CFEAFF760EE926040EEA22EE521DC343
:10410000EFFF0250080DF3CFE9FFF4CFEAFF350EC1
:10411000E926040EEA22070EE926000EEA2201EB48
:10412000EFFF0150EA6A6D0FE96E040EEA2202EB1E
:10413000EFFF0401742B036A100E035C72E202505D
:104140000B0DF3CFE9FFF4CFEAFFE80EE926030EEB
:10415000EA22020EE926000EEA22EECF1EFFEECF83
:104160001FFFEECF20FFEFCF21FF01506D0DF3CFEA
:10417000E9FFF4CFEAFF760EE926040EEA22070EE5
:10418000E926000EEA22E9CF1CFFEACF1DFF03500B
:10419000060D0F010F011C51F324E96E0F010F01F1
:1041A0001D51F420EA6E020EE926000EEA221ECF0F
:1041B000EEFF1FCFEEFF20CFEEFF21CFEEFF02502C
:1041C0000B0DF3CFE9FFF4CFEAFFE80EE926030E6B
:1041D000EA22EECF1EFFEFCF1FFF01506D0DF3CF90
:1041E000E9FFF4CFEAFF760EE926040EEA22070E75
:1041F000E926000EEA22E9CF1CFFEACF1DFF03509B
:10420000060D0F010F011C51F324E96E0F010F0180
:104210001D51F420EA6E1ECFEEFF1FCFEDFF032AE3
:104220008BD701506D0DF3CFE9FFF4CFEAFF760E87
:10423000E926040EEA22060EE926000EEA22010E05
:10424000EF6E0401752B022A24D6016A070E015C69
:1042500001E3CCD00150EA6A6D0FE96E040EEA2248
:10426000EF50FF0840E001506D0DF3CFE9FFF4CFB0
:10427000EAFF760EE926040EEA22EF5004080DE16B
:1042800001506D0DF3CFE9FFF4CFEAFF760EE9267A
:10429000040EEA22030EEF6E25D001506D0DF3CF10
:1042A000E9FFF4CFEAFF760EE926040EEA22EE5289
:1042B000EF5018E101506D0DF3CFE9FFF4CFEAFFA5
:1042C000760EE926040EEA22EF040CE101506D0D92
:1042D000F3CFE9FFF4CFEAFF760EE926040EEA22D7
:1042E000020EEF6E67D001506D0DF3CFE9FFF4CFF2
:1042F000EAFF760EE926040EEA22EF040EE10150F1
:104300006D0DF3CFE9FFF4CFEAFF760EE926040E38
:10431000EA22EF6A040175074DD001506D0DF3CF0D
:10432000E9FFF4CFEAFF760EE926040EEA22EF5009
:1043300003081AE101506D0DF3CFE9FFF4CFEAFF56
:10434000760EE926040EEA22040EEF6E01506D0D82
:10435000F3CFE9FFF4CFEAFF760EE926040EEA2256
:10436000EE521EC3EFFF26D001506D0DF3CFE9FFD3
:10437000F4CFEAFF760EE926040EEA22EF50040895
:1043800019E101506D0DF3CFE9FFF4CFEAFF760E8E
:10439000E926040EEA22EE52EF500CE101506D0DB9
:1043A000F3CFE9FFF4CFEAFF760EE926040EEA2206
:1043B000050EEF6E01506D0DF3CFE9FFF4CFEAFF6C
:1043C000760EE926040EEA22EE52EF5000080CE2C7
:1043D00001506D0DF3CFE9FFF4CFEAFF760EE92629
:1043E000040EEA22EE52EF06012A30D7000E00D06A
:1043F00048E9E7CFD9FF1200D9CFE6FFE1CFD9FFD7
:1044000083E942E803680468070E015C4DE201504D
:104410006D0DF3CFE9FFF4CFEAFF760EE926040E27
:10442000EA22EF5041E001506D0DF3CFE9FFF4CFE8
:10443000EAFF760EE926040EEA22EF50050834E082
:1044400000500B0DF3CFE9FFF4CFEAFFE80EE926A9
:10445000030EEA22020EE926000EEA22EECFE6FF64
:10446000EECFE6FFEECFE6FFEECFE6FF01506D0D9B
:10447000F3CFE9FFF4CFEAFF760EE926040EEA2235
:10448000070EE926000EEA22020EE926000EEA22B5
:10449000EECFE6FFEECFE6FFEECFE6FFEECFE6FF94
:1044A0004DD848E9036E046A0350FF08000E045417
:1044B00002E20368046AFF0E031400D043E9E7CF69
:1044C000D9FF1200D9CFE6FFE1CFD9FF89E944E84F
:1044D0000450005C0550015807E20050045C096E6E
:1044E000015005580A6E06D00450005C096E055054
:1044F00001580A6E0650025C0750035807E202504A
:10450000065C0B6E035007580C6E06D00650025C1A
:104510000B6E075003580C6E0B50095C0C500A5878
:1045200004E28BEB09F08CEB0AF009EBF3FF0AEBEA
:10453000F4FF00D045E9E7CFD9FF1200D9CFE6FF5D
:10454000E1CFD9FF89E944E80450005C05500158E7
:1045500007E20050045C096E015005580A6E06D04F
:104560000450005C096E055001580A6E0650025C4A
:104570000750035807E20250065C0B6E03500758C1
:104580000C6E06D00650025C0B6E075003580C6E82
:104590000B5009260C500A22D8900A3209320950D1
:1045A000FF08000E0A5402E209680A6AFF0E0914A5
:1045B00000D045E9E7CFD9FF1200D9CFE6FFE1CF20
:1045C000D9FF85E948E802EBE9FF03EBEAFF070EB4
:1045D000E926000EEA22020EE926000EEA22EE503B
:1045E000056EEE50066EEE50076EEF50086E02EB51
:1045F000E9FF03EBEAFF070EE926000EEA22060EAA
:10460000E926000EEA22020EE926000EEA22EE500A
:10461000096EEE500A6EEE500B6EEF500C6E0F01ED
:104620000950055C1E6F0A5006581F6F05500F0198
:104630001E250F011C6F06500F011F210F011D6F5A
:1046400000EBE9FF01EBEAFF1CCFEEFF1DCFEDFF12
:104650000F010B50075C1E6F0C5008581F6F07505E
:104660000F011E250F011C6F08500F011F210F01A4
:104670001D6F00EBE9FF01EBEAFF020EE926000ED9
:10468000EA221CCFEEFF1DCFEDFF49E9E7CFD9FFAE
:104690001200D9CFE6FFE1CFD9FF81E94FE8016AE7
:1046A000070E015C01E3AAD201506D0DF3CFE9FFC3
:1046B000F4CFEAFF760EE926040EEA22EF50020854
:1046C0001BE001506D0DF3CFE9FFF4CFEAFF760E4A
:1046D000E926040EEA22EF5003080EE001506D0DAA
:1046E000F3CFE9FFF4CFEAFF760EE926040EEA22C3
:1046F000EF50050801E080D203011951026E046AEF
:10470000056A066A076A086A096A0A6A0B6A01503A
:104710006D0DF3CFE9FFF4CFEAFF760EE926040E24
:10472000EA22060EE926000EEA220250EF5C10E2B1
:1047300001506D0DF3CFE9FFF4CFEAFF760EE926C5
:10474000040EEA22060EE926000EEA22EF50026E5F
:10475000036A0250035C01E37AD001506D0DF3CF80
:10476000E9FFF4CFEAFF760EE926040EEA22070EEF
:10477000E926000EEA22E9CF20FFEACF21FF03500D
:10478000060D0F010F012051F324E96E0F010F01F7
:104790002151F420EA6E020EE926000EEA22EECF45
:1047A0001CFFEFCF1DFF0F011E6B1F6BD950040FB5
:1047B000E96EDACFEAFF0F011C51EE260F011D5101
:1047C000EE220F011E51EE220F011F51EE22015069
:1047D0006D0DF3CFE9FFF4CFEAFF760EE926040E64
:1047E000EA22070EE926000EEA22E9CF20FFEACFEF
:1047F00021FF0350060D0F010F012051F324E96E34
:104800000F010F012151F420EA6E020EE926000E7D
:10481000EA22020EE926000EEA22EECF1CFFEFCFBD
:104820001DFF0F011E6B1F6BD950080FE96EDACF09
:10483000EAFF0F011C51EE260F011D51EE220F0160
:104840001E51EE220F011F51EE22032A82D702EBE6
:10485000E6FFE66AE66AE66A04EBE6FF05EBE6FFDA
:1048600006EBE6FF07EBE6FF4DEC53F0E552E5CF34
:104870001FFFE5CF1EFFE5CF1DFFE7CF1CFF0F0198
:104880001C51046E1D51056E1E51066E1F51076EA0
:1048900002EBE6FFE66AE66AE66A08EBE6FF09EB8A
:1048A000E6FF0AEBE6FF0BEBE6FF4DEC53F0E552BB
:1048B000E5CF1FFFE5CF1EFFE5CF1DFFE7CF1CFFB4
:1048C0000F011C51086E1D51096E1E510A6E1F51B9
:1048D0000B6E03C3E6FF04C3E6FFE66AE66A04EB79
:1048E000E6FF05EBE6FF06EBE6FF07EBE6FFC1ECB4
:1048F00053F0E552E5CF1FFFE5CF1EFFE5CF1DFFCB
:10490000E7CF1CFF0F011C51046E1D51056E1E5197
:10491000066E1F51076ED950040FE96EDACFEAFF19
:104920000F0EE76ED890030EEB32020EEB32010E43
:10493000EB32EF32E706F6E105C3E6FF06C3E6FF1A
:10494000E66AE66A08EBE6FF09EBE6FF0AEBE6FF3C
:104950000BEBE6FFC1EC53F0E552E5CF1FFFE5CFCF
:104960001EFFE5CF1DFFE7CF1CFF0F011C51086E96
:104970001D51096E1E510A6E1F510B6ED950080F42
:10498000E96EDACFEAFF0F0EE76ED890030EEB3236
:10499000020EEB32010EEB32EF32E706F6E1045085
:1049A0000008100E0554000E0654000E075404E2D1
:1049B000046A056A066A076A0450FF08030E055474
:1049C000000E0654000E075405E20468030E056E3F
:1049D000066A076A08500008100E0954000E0A54AF
:1049E000000E0B5404E2086A096A0A6A0B6A08504E
:1049F000FF08030E0954000E0A54000E0B5405E282
:104A00000868030E096E0A6A0B6A030E0301181583
:104A1000030A57E0010A2CE0030A01E0A3D00F01CA
:104A20002069030E216F226B236BD950040FE96EAE
:104A3000DACFEAFFEE500F01205D0F011C6FEE5040
:104A40000F0121590F011D6FEE500F0122590F0167
:104A50001E6FEE500F0123590F011F6F0F011C51E4
:104A6000046E1D51056E1E51066E1F51076E7AD0E1
:104A70000F012069030E216F226B236BD950080FA1
:104A8000E96EDACFEAFFEE500F01205D0F011C6FD7
:104A9000EE500F0121590F011D6FEE500F012259E9
:104AA0000F011E6FEE500F0123590F011F6F0F01F1
:104AB0001C51086E1D51096E1E510A6E1F510B6E5E
:104AC00051D00F012069030E216F226B236BD95047
:104AD000040FE96EDACFEAFFEE500F01205D0F01FF
:104AE0001C6FEE500F0121590F011D6FEE500F0189
:104AF00022590F011E6FEE500F0123590F011F6F36
:104B00000F011C51046E1D51056E1E51066E1F5182
:104B1000076E0F012069030E216F226B236BD950A2
:104B2000080FE96EDACFEAFFEE500F01205D0F01AA
:104B30001C6FEE500F0121590F011D6FEE500F0138
:104B400022590F011E6FEE500F0123590F011F6FE5
:104B50000F011C51086E1D51096E1E510A6E1F5126
:104B60000B6E00D0040E03011815040818E184EB45
:104B70000CF085EB0DF086EB0EF087EB0FF088EB79
:104B800004F089EB05F08AEB06F08BEB07F08CEB79
:104B900008F08DEB09F08EEB0AF08FEB0BF0015073
:104BA0006D0DF3CFE9FFF4CFEAFF760EE926040E90
:104BB000EA22020EE926000EEA2204EBEEFF05EBE4
:104BC000EDFF01506D0DF3CFE9FFF4CFEAFF760E54
:104BD000E926040EEA22020EE926000EEA22020E5F
:104BE000E926000EEA2208EBEEFF09EBEDFF01EBF0
:104BF000E6FF09EC48F041E9012A52D5080E01010F
:104C0000A215080803E10101A28502D00101A295C5
:084C100050E9E7CFD9FF1200C3
:084C1800D9CFE6FFE1CFD9FF7F
:104C200081E941E8016A070E015C57E20150140D69
:104C3000F3CFE9FFF4CFEAFF4C0EE926030EEA2298
:104C40000C0EE926000EEA22EE6AED6A0150140D00
:104C5000F3CFE9FFF4CFEAFF4C0EE926030EEA2278
:104C60000E0EE926000EEA22EE6AED6A0150140DDE
:104C7000F3CFE9FFF4CFEAFF4C0EE926030EEA2258
:104C8000EF6A0150140DF3CFE9FFF4CFEAFF4C0EA9
:104C9000E926030EEA22030EE926000EEA22EF6A55
:104CA0000150140DF3CFE9FFF4CFEAFF4C0EE926D3
:104CB000030EEA22EE52EF6A0150140DF3CFE9FF22
:104CC000F4CFEAFF4C0EE926030EEA22020EE92693
:104CD000000EEA22EF6A012AA6D742E9E7CFD9FF00
:104CE0001200D9CFE6FFE1CFD9FF81E949E8016A97
:104CF000070E015C02E376EF2EF00150140DF3CFA6
:104D0000E9FFF4CFEAFF4C0EE926030EEA22EE5249
:104D1000EF6A01506D0DF3CFE9FFF4CFEAFF760E95
:104D2000E926040EEA22EFCF1CFF020E0F01E76E08
:104D30001C1902E71C3502D01C51E75C02E373EF3B
:104D40002EF00150140DF3CFE9FFF4CFEAFF4C0E23
:104D5000E926030EEA22020EE926000EEA22EF50AF
:104D6000030835E10150140DF3CFE9FFF4CFEAFF5A
:104D70004C0EE926030EEA220C0EE926000EEA226A
:104D8000EECF1CFFEFCF1DFF0F011C510301345D5F
:104D90000F011D51030135591AE20150140DF3CFD3
:104DA000E9FFF4CFEAFF4C0EE926030EEA22EF6A90
:104DB0000150140DF3CFE9FFF4CFEAFF4C0EE926C2
:104DC000030EEA22020EE926000EEA22EF6A0150E3
:104DD0006D0DF3CFE9FFF4CFEAFF760EE926040E5E
:104DE000EA22EF50030A01E103D3060A11E0050AA3
:104DF00002E058EF2EF00150140DF3CFE9FFF4CF8D
:104E0000EAFF4C0EE926030EEA22EF6A59EF2EF074
:104E10000150140DF3CFE9FFF4CFEAFF4C0EE92661
:104E2000030EEA22EF50020856E10150140DF3CFB1
:104E3000E9FFF4CFEAFF4C0EE926030EEA22020E48
:104E4000E926000EEA22EFCF1CFF1CCFE6FF01503F
:104E5000140DF3CFE9FFF4CFEAFF4C0EE926030E61
:104E6000EA22030EE926000EEA22EFCFE6FF7AECF3
:104E70002EF041E9E552E7CF1CFF100DF3500F0172
:104E80001C25E66E0150140DF3CFE9FFF4CFEAFFC5
:104E90004C0EE926030EEA22EE52E552E750EF6E81
:104EA0000150140DF3CFE9FFF4CFEAFF4C0EE926D1
:104EB000030EEA22020EE926000EEA22EF6A0150F2
:104EC000140DF3CFE9FFF4CFEAFF4C0EE926030EF1
:104ED000EA22EF6A71D20150140DF3CFE9FFF4CF4B
:104EE000EAFF4C0EE926030EEA22EF0401E064D249
:104EF00003010051D890E830076E066A01E3068E80
:104F000003010151D890E830096E086A01E3088E68
:104F100003013651065E000E075A03013651085E42
:104F2000000E095A0150140DF3CFE9FFF4CFEAFF48
:104F30004C0EE926030EEA22040EE926000EEA22B0
:104F4000EECF1CFFEFCF1DFF030136510F011E6F87
:104F50001F6B0F011C510F011E5D0F011D510F0131
:104F60001F5901E31AD20150140DF3CFE9FFF4CF1A
:104F7000EAFF4C0EE926030EEA22060EE926000E91
:104F8000EA22EECF20FFEFCF21FF030136510F01C0
:104F9000226F236B0F0120510F01225D0F01215160
:104FA0000F01235901E3F9D10150140DF3CFE9FFAB
:104FB000F4CFEAFF4C0EE926030EEA22040EE9269E
:104FC000000EEA220650EE5C0750ED5801E3E5D1F1
:104FD0000150140DF3CFE9FFF4CFEAFF4C0EE926A0
:104FE000030EEA22060EE926000EEA220850EE5CC5
:104FF0000950ED5801E3D1D101506D0DF3CFE9FF18
:10500000F4CFEAFF760EE926040EEA22070EE9261F
:10501000000EEA22020EE926000EEA22EECF1EFF63
:10502000EECF1FFFEECF20FFEFCF21FF0150140D79
:10503000F3CFE9FFF4CFEAFF4C0EE926030EEA2294
:10504000040EE926000EEA22EECF22FFEFCF23FF67
:105050000F0122510F011E5D0F0123510F011F5936
:1050600033E301506D0DF3CFE9FFF4CFEAFF760E85
:10507000E926040EEA22070EE926000EEA22020EB5
:10508000E926000EEA22EECF24FFEECF25FFEECF79
:1050900026FFEFCF27FF0150140DF3CFE9FFF4CF28
:1050A000EAFF4C0EE926030EEA22040EE926000E62
:1050B000EA22EE500F01245D0F011C6FEE500F012C
:1050C00025590F011D6F32D001506D0DF3CFE9FF4F
:1050D000F4CFEAFF760EE926040EEA22070EE9264F
:1050E000000EEA22020EE926000EEA22EECF28FF89
:1050F000EECF29FFEECF2AFFEFCF2BFF0150140D8B
:10510000F3CFE9FFF4CFEAFF4C0EE926030EEA22C3
:10511000040EE926000EEA220F012851EE5C0F0171
:105120001C6F0F012951EE580F011D6F0F011C510B
:10513000026E1D51036E01506D0DF3CFE9FFF4CFE8
:10514000EAFF760EE926040EEA22070EE926000E93
:10515000EA22020EE926000EEA22EECF1EFFEECF73
:105160001FFFEECF20FFEFCF21FF0150140DF3CF33
:10517000E9FFF4CFEAFF4C0EE926030EEA22060E01
:10518000E926000EEA22EECF22FFEFCF23FF0F0128
:1051900022510F01205D0F0123510F01215933E3EB
:1051A00001506D0DF3CFE9FFF4CFEAFF760EE9264B
:1051B000040EEA22070EE926000EEA22020EE92674
:1051C000000EEA22EECF24FFEECF25FFEECF26FF22
:1051D000EFCF27FF0150140DF3CFE9FFF4CFEAFF23
:1051E0004C0EE926030EEA22060EE926000EEA22FC
:1051F000EE500F01265D0F011C6FEE500F01275975
:105200000F011D6F32D001506D0DF3CFE9FFF4CFC8
:10521000EAFF760EE926040EEA22070EE926000EC2
:10522000EA22020EE926000EEA22EECF28FFEECF98
:1052300029FFEECF2AFFEFCF2BFF0150140DF3CF44
:10524000E9FFF4CFEAFF4C0EE926030EEA22060E30
:10525000E926000EEA220F012A51EE5C0F011C6FB5
:105260000F012B51EE580F011D6F0F011C51046EE1
:105270001D51056E03010250325D000E035401E220
:105280007CD003010450325D000E055476E30150DA
:10529000140DF3CFE9FFF4CFEAFF4C0EE926030E1D
:1052A000EA22EE52100EEF6E0150140DF3CFE9FF1B
:1052B000F4CFEAFF4C0EE926030EEA22020EE9269D
:1052C000000EEA22030EEF6E0150140DF3CFE9FF3A
:1052D000F4CFEAFF4C0EE926030EEA22040EE9267B
:1052E000000EEA22EECF1CFFEFCF1DFF0150140D80
:1052F000F3CFE9FFF4CFEAFF4C0EE926030EEA22D2
:10530000080EE926000EEA221CCFEEFF1DCFEDFFAE
:105310000150140DF3CFE9FFF4CFEAFF4C0EE9265C
:10532000030EEA22060EE926000EEA22EECF1CFF4B
:10533000EFCF1DFF0150140DF3CFE9FFF4CFEAFFCB
:105340004C0EE926030EEA220A0EE926000EEA2296
:105350001CCFEEFF1DCFEDFF0150140DF3CFE9FF81
:10536000F4CFEAFF4C0EE926030EEA220C0EE926E2
:10537000000EEA22EE6AED6A0FD00150140DF3CF51
:10538000E9FFF4CFEAFF4C0EE926030EEA22020EF3
:10539000E926000EEA22EF6A0FD00150140DF3CF78
:1053A000E9FFF4CFEAFF4C0EE926030EEA22020ED3
:1053B000E926000EEA22EF6A0150140DF3CFE9FF4F
:1053C000F4CFEAFF4C0EE926030EEA22EF6A015001
:1053D000140DF3CFE9FFF4CFEAFF4C0EE926030EDC
:1053E000EA22030EE926000EEA22EF6A59EF2EF0B8
:1053F0000150140DF3CFE9FFF4CFEAFF4C0EE9267C
:10540000030EEA22EF5001E086D001506D0DF3CF7C
:10541000E9FFF4CFEAFF760EE926040EEA22070E32
:10542000E926000EEA22020EE926000EEA22EECF5D
:105430001CFFEECF1DFFEECF1EFFEFCF1FFF015071
:10544000140DF3CFE9FFF4CFEAFF4C0EE926030E6B
:10545000EA22040EE926000EEA221CCFEEFF1DCF41
:10546000EDFF01506D0DF3CFE9FFF4CFEAFF760EAB
:10547000E926040EEA22070EE926000EEA22020EB1
:10548000E926000EEA22EECF1CFFEECF1DFFEECF85
:105490001EFFEFCF1FFF0150140DF3CFE9FFF4CF34
:1054A000EAFF4C0EE926030EEA22060EE926000E5C
:1054B000EA221ECFEEFF1FCFEDFF0150140DF3CFF8
:1054C000E9FFF4CFEAFF4C0EE926030EEA22010EB3
:1054D000EF6E0150140DF3CFE9FFF4CFEAFF4C0E4D
:1054E000E926030EEA22020EE926000EEA22EF5018
:1054F000030810E00150140DF3CFE9FFF4CFEAFFE9
:105500004C0EE926030EEA220C0EE926000EEA22D2
:10551000EE6AED6ACCD30150140DF3CFE9FFF4CF5E
:10552000EAFF4C0EE926030EEA22EF0401E0C7D1A0
:105530000150140DF3CFE9FFF4CFEAFF4C0EE9263A
:10554000030EEA22020EE926000EEA22EF500308BB
:1055500001E06ED10150140DF3CFE9FFF4CFEAFF63
:105560004C0EE926030EEA220C0EE926000EEA2272
:10557000EECF1CFFEFCF1DFF030134510F011C5D67
:10558000030135510F011D5901E342D10150140DA2
:10559000F3CFE9FFF4CFEAFF4C0EE926030EEA222F
:1055A000040EE926000EEA22EECF1EFFEFCF1FFF0A
:1055B0000150140DF3CFE9FFF4CFEAFF4C0EE926BA
:1055C000030EEA22080EE926000EEA22EECF20FFA3
:1055D000EFCF21FF0F0120510F011E5D0F0121515F
:1055E0000F011F592BE30150140DF3CFE9FFF4CF46
:1055F000EAFF4C0EE926030EEA22040EE926000E0D
:10560000EA22EECF22FFEFCF23FF0150140DF3CF9C
:10561000E9FFF4CFEAFF4C0EE926030EEA22080E5A
:10562000E926000EEA22EE500F01225D0F011C6FE9
:10563000EE500F0123590F011D6F2AD00150140D98
:10564000F3CFE9FFF4CFEAFF4C0EE926030EEA227E
:10565000080EE926000EEA22EECF24FFEFCF25FF49
:105660000150140DF3CFE9FFF4CFEAFF4C0EE92609
:10567000030EEA22040EE926000EEA22EE500F0184
:10568000245D0F011C6FEE500F0125590F011D6F96
:105690000F011C51026E1D51036E0150140DF3CF0A
:1056A000E9FFF4CFEAFF4C0EE926030EEA22060ECC
:1056B000E926000EEA22EECF1EFFEFCF1FFF0150BA
:1056C000140DF3CFE9FFF4CFEAFF4C0EE926030EE9
:1056D000EA220A0EE926000EEA22EECF20FFEFCFE3
:1056E00021FF0F0120510F011E5D0F0121510F01FC
:1056F0001F592BE30150140DF3CFE9FFF4CFEAFF5C
:105700004C0EE926030EEA22060EE926000EEA22D6
:10571000EECF22FFEFCF23FF0150140DF3CFE9FFAF
:10572000F4CFEAFF4C0EE926030EEA220A0EE92620
:10573000000EEA22EE500F01225D0F011C6FEE50A9
:105740000F0123590F011D6F2AD00150140DF3CF03
:10575000E9FFF4CFEAFF4C0EE926030EEA220A0E17
:10576000E926000EEA22EECF24FFEFCF25FF0150FD
:10577000140DF3CFE9FFF4CFEAFF4C0EE926030E38
:10578000EA22060EE926000EEA22EE500F01245D01
:105790000F011C6FEE500F0125590F011D6F0F01F6
:1057A0001C51046E1D51056E03010250325D000E46
:1057B00003542EE303010450325D000E055428E328
:1057C0000150140DF3CFE9FFF4CFEAFF4C0EE926A8
:1057D000030EEA22EE52200EEF6E0150140DF3CFAD
:1057E000E9FFF4CFEAFF4C0EE926030EEA22020E8F
:1057F000E926000EEA22EF6A0150140DF3CFE9FF0B
:10580000F4CFEAFF4C0EE926030EEA22040EEF6EF7
:105810000150140DF3CFE9FFF4CFEAFF4C0EE92657
:10582000030EEA220C0EE926000EEA22EE6AED6A69
:105830000150140DF3CFE9FFF4CFEAFF4C0EE92637
:10584000030EEA220C0EE926000EEA22EECF1CFF20
:10585000EFCF1DFF0F011C5103012E5D0F011D51E4
:1058600003012F5904E301EBE6FF61DA41E901503E
:10587000140DF3CFE9FFF4CFEAFF4C0EE926030E37
:10588000EA220C0EE926000EEA22EECF1CFFEFCF33
:105890001DFF0F011C510301305D0F011D5103015C
:1058A00031590CE20150140DF3CFE9FFF4CFEAFFB8
:1058B0004C0EE926030EEA22030EEF6EF8D10150DA
:1058C000140DF3CFE9FFF4CFEAFF4C0EE926030EE7
:1058D000EA22EF50020801E0D8D10150140DF3CFB5
:1058E000E9FFF4CFEAFF4C0EE926030EEA22020E8E
:1058F000E926000EEA22EF0406E101EBE6FF76EC72
:1059000031F041E9C1D10150140DF3CFE9FFF4CFDB
:10591000EAFF4C0EE926030EEA22020EE926000EEB
:10592000EA22EF50020801E0AFD101506D0DF3CF34
:10593000E9FFF4CFEAFF760EE926040EEA22070E0D
:10594000E926000EEA22020EE926000EEA22EECF38
:105950001EFFEECF1FFFEECF20FFEFCF21FF015044
:10596000140DF3CFE9FFF4CFEAFF4C0EE926030E46
:10597000EA22100EE926000EEA22EECF22FFEFCF38
:1059800023FF0F0122510F011E5D0F0123510F0153
:105990001F5933E301506D0DF3CFE9FFF4CFEAFF58
:1059A000760EE926040EEA22070EE926000EEA2208
:1059B000020EE926000EEA22EECF24FFEECF25FFED
:1059C000EECF26FFEFCF27FF0150140DF3CFE9FFF5
:1059D000F4CFEAFF4C0EE926030EEA22100EE92668
:1059E000000EEA22EE500F01245D0F011C6FEE50F5
:1059F0000F0125590F011D6F32D001506D0DF3CFEE
:105A0000E9FFF4CFEAFF760EE926040EEA22070E3C
:105A1000E926000EEA22020EE926000EEA22EECF67
:105A200028FFEECF29FFEECF2AFFEFCF2BFF01504B
:105A3000140DF3CFE9FFF4CFEAFF4C0EE926030E75
:105A4000EA22100EE926000EEA220F012851EE5C30
:105A50000F011C6F0F012951EE580F011D6F0F012F
:105A60001C51026E1D51036E01506D0DF3CFE9FF05
:105A7000F4CFEAFF760EE926040EEA22070EE926A5
:105A8000000EEA22020EE926000EEA22EECF1EFFE9
:105A9000EECF1FFFEECF20FFEFCF21FF0150140DFF
:105AA000F3CFE9FFF4CFEAFF4C0EE926030EEA221A
:105AB000120EE926000EEA22EECF22FFEFCF23FFDF
