:020000040000fa
:080000000002040000000000f2
:020000040000fa
:100400000fa421000e7f24000e01880000000000d0
:100410000c00070040142700010020001100070015
:10042000000020000000e000020032000000020096
:1004300000000000bc610200000000000040da0083
:100440000000fe004440a900802120000000e000e0
:100450000300320000002000a00188004440a800f2
:100460000000060091018800800078000000eb0089
:1004700015003700e280400032a0b4009101ba00bc
:10048000e280400032a0b4009102ba00e280400055
:1004900032a0b4000002eb00472bde00f507b200eb
:1004a000602ce10004003a000059eb008301e900f0
:1004b000fdff3e00040037006128e100010032002a
:1004c0000082eb00040007001101ba000200e00006
:1004d000e8ff3a00000006003159ba008301e90044
:1004e0000c0032002159ba008301e90008003200f3
:1004f0000400e00003003a00e280400032a0b400b3
:10050000f5ff370011d9ba008301e900faff3a007c
:100510008100e800e180400032a0b4000000060045
:1005200000000000000000000000000000000000cb
:1005300000000000000000000000000000000000bb
:100540000040da000000fe006022b8000602200031
:100550000000d0008180d2000482d2008582d200c7
:100560000000a0000202520083825a000300310002
:100570000202420083824a000000a1000603e90053
:08058000f3ff3a000000060041
:020000040000fa
:020000040001f9
:0457f400ffff0000b3
:020000040000fa
:020000040001f9
:0457f800bd230000cd
:020000040000fa
:020000040001f9
:0457fc007f3f0000eb
:020000040000fa
:10000800a0020000a0020000a0020000a002000060
:10001800a0020000a0020000a0020000a002000050
:10002800a0020000a0020000a0020000a002000040
:10003800a0020000a0020000a0020000a002000030
:100048005e3e0000a0020000a0020000a002000026
:10005800a0020000a0020000a0020000a002000010
:10006800a0020000a0020000a0020000a002000000
:10007800a0020000a0020000a0020000a0020000f0
:10008800a0020000a0020000a0020000a0020000e0
:10009800a0020000a0020000a0020000a0020000d0
:1000a800a0020000a0020000a0020000a0020000c0
:1000b800a0020000a0020000a0020000a0020000b0
:1000c800a0020000a0020000a0020000a0020000a0
:1000d800a0020000a0020000a0020000a002000090
:1000e800a0020000a0020000a0020000a002000080
:1000f800a0020000a0020000a0020000a002000070
:10010800a0020000a0020000a0020000a00200005f
:10011800a0020000a0020000a0020000a00200004f
:10012800a0020000a0020000a0020000a00200003f
:10013800a0020000a0020000a0020000a00200002f
:10014800a0020000a0020000a0020000a00200001f
:10015800a0020000a0020000a0020000a00200000f
:10016800a0020000a0020000a0020000a0020000ff
:10017800a0020000a00200006c310000a0020000f4
:10018800a0020000a0020000a0020000a0020000df
:10019800a0020000a0020000a0020000a0020000cf
:1001a800a0020000a0020000a0020000a0020000bf
:1001b800a0020000a0020000a0020000a0020000af
:1001c800a0020000a0020000a0020000a00200009f
:1001d800a0020000a0020000a0020000a00200008f
:1001e800a0020000a0020000a0020000a00200007f
:0801f800a0020000a0020000bb
:020000040000fa
:10020800a0020000a0020000a0020000a00200005e
:10021800a0020000a0020000a0020000a00200004e
:10022800a0020000a0020000a0020000a00200003e
:10023800a0020000a0020000a0020000a00200002e
:100248005e3e0000a0020000a0020000a002000024
:10025800a0020000a0020000a0020000a00200000e
:10026800a0020000a0020000a0020000a0020000fe
:10027800a0020000a0020000a0020000a0020000ee
:10028800a0020000a0020000a0020000a0020000de
:10029800a0020000a0020000a0020000a0020000ce
:1002a800a0020000a0020000a0020000a0020000be
:1002b800a0020000a0020000a0020000a0020000ae
:1002c800a0020000a0020000a0020000a00200009e
:1002d800a0020000a0020000a0020000a00200008e
:1002e800a0020000a0020000a0020000a00200007e
:1002f800a0020000a0020000a0020000a00200006e
:10030800a0020000a0020000a0020000a00200005d
:10031800a0020000a0020000a0020000a00200004d
:10032800a0020000a0020000a0020000a00200003d
:10033800a0020000a0020000a0020000a00200002d
:10034800a0020000a0020000a0020000a00200001d
:10035800a0020000a0020000a0020000a00200000d
:10036800a0020000a0020000a0020000a0020000fd
:10037800a0020000a00200006c310000a0020000f2
:10038800a0020000a0020000a0020000a0020000dd
:10039800a0020000a0020000a0020000a0020000cd
:1003a800a0020000a0020000a0020000a0020000bd
:1003b800a0020000a0020000a0020000a0020000ad
:1003c800a0020000a0020000a0020000a00200009d
:1003d800a0020000a0020000a0020000a00200008d
:1003e800a0020000a0020000a0020000a00200007d
:0803f800a0020000a0020000b9
:020000040000fa
:1018000001000000020000000400000008000000c9
:1018100010000000200000004000000080000000d8
:1018200000010000000200000004000000080000a9
:1018300000100000002000000040000000800000b8
:10184000c8020000c8020000c8020000c802000070
:10185000c8020000c8020000c8020000c802000060
:10186000c8020000c8020000c8020000c802000050
:10187000c8020000c8020000c8020000c802000040
:101880000100000002000000040000000800000049
:101890001000000020000000400000008000000058
:1018a0000001000000020000000400000008000029
:1018b0000010000000200000004000000080000038
:1018c00000200000004000000100000002000000b5
:1018d00004000000080000001000000020000000cc
:1018e000400000008000000000010000000800002f
:1018f00001000000020000000400000008000000d9
:1019000010000000200000004000000080000000e7
:1019100001000000020000000800000010000000ac
:1019200020000000cc020000cc020000cc0200002d
:10193000cc020000cc020000cc020000cc0200006f
:10194000cc020000cc020000cc020000cc0200005f
:10195000cc020000cc020000cc020000cc0200004f
:10196000cc020000d4020000d4020000dc0200001f
:10197000dc020000dc020000dc020000dc020000ef
:10198000dc020000dc020000dc020000dc020000df
:10199000dc020000e4020000e4020000e4020000b7
:1019a000e4020000e4020000e4020000e40200009f
:1019b000e4020000ec020000ec020000ec02000077
:1019c000ec020000ec020000120100000002000026
:1019d0000200000000080000d80400000a00000017
:1019e00000010000010200000001000009020000e7
:1019f00043000000020100000080000032090000e6
:101a000004000000000100000202000001000000cc
:101a10000524000000100000010400002402000062
:101a2000020500002406000000010000052400005b
:101a3000010000000107000005820000030800000b
:101a4000000200000904000001000000020a00007a
:101a50000000000000070000050300000240000035
:101a600000000000070500008302000040000000a5
:101a7000000000000403000009040000340300001b
:101a80004d000000690000006300000072000000cb
:101a90006f000000630000006800000069000000a3
:101aa00070000000200000005400000065000000ed
:101ab00063000000680000006e0000006f0000007e
:101ac0006c0000006f00000067000000790000005b
:101ad00020000000490000006e00000063000000cc
:101ae0002e0000003403000043000000440000000a
:101af00043000000200000005200000053000000de
:101b00002d00000032000000330000003200000011
:101b100020000000450000006d000000750000007e
:101b20006c0000006100000074000000690000000b
:101b30006f0000006e000000200000004400000064
:101b4000650000006d0000006f000000f68c0000d2
:101b50003a8d00003e8d0000728d000000000000f4
:101b600000000000ff000000000100000000000075
:101b700000000000ff000000000100000000000065
:101b80000000000000ff0000ff080000ff0100004f
:101b9000050000000000000001ff00000701000038
:101ba000010600000000000000000000fe0200002e
:101bb000000200000100000000000000fe00000024
:101bc0000302000000040000fe260000201f0000a9
:101bd00021240000ffff0000ffff0000232200007f
:101be000212000001f1e00001d1c00002500000019
:101bf00000000000000000000000000000000000e5
:101c000000000000000000000000000000050000cf
:101c1000040300000206000007080000090a000093
:101c20000b0f00000e00000000000000000000008c
:020000040000fa
:101c30000200fa000040eb003ef3b7000040eb006a
:101c4000d4f3b7000040eb0010479800880037003d
:101c50001e4090000080fb006c00b9008080e8000e
:101c6000e0332100808040000040eb008048780095
:101c70001e4090000080fb006c00b9008080e800ee
:101c8000e0332100808040000040eb00904098004d
:101c90001e4090000080fb006c00b900e400400092
:101ca000e0332100808040000000eb0080087800d5
:101cb0001e4090000080fb006c00b900e600400070
:101cc000e0332100808040000000eb0080087800b5
:101cd0001e4090000080fb006c00b900ec0040004a
:101ce000e0332100808040000040eb008048780015
:101cf0001e4090008080fb00000720000088b90093
:101d00002104200080804000403921008080400074
:101d10000000eb00800878001e4090008080fb00ef
:101d2000000720000088b9004104200080804000a6
:101d300040392100808040000040eb00804878005e
:101d40001e4090008080fb00000720000088b90042
:101d5000a1042000808040004039210080804000a4
:101d60000040eb00804878000040eb00004f780016
:101d7000390037001e4090000081fb001e80fb00f0
:101d80006600b90080017800000720000090b900cb
:101d900000804100c10420008080400040392100c3
:101da000808040000040eb00804878001e4090009a
:101db0000081fb001e80fb006600b90080017800f6
:101dc000000720000090b90000804100c1042000fd
:101dd0008080400040392100808040000040eb00be
:101de000904098001e4090000081fb001e80fb0088
:101df0006600b90080017800000720000090b9005b
:101e000000804100e1042000808040004039210032
:101e1000808040000000eb00800878001e409000a9
:101e20000081fb001e80fb006600b9008001780085
:101e3000000720000090b90000804100010520004b
:101e40008080400040392100808040000000eb008d
:101e5000800878001e4fe80000c1b3009e4f1000bc
:101e6000c4ff36001e4090000040e8001047980074
:101e70001e409000e64f500075ff36000080fa00cb
:101e8000000006005e00fa00881f78000000eb00ea
:101e900030079800e8cebf000080fb004200de0063
:101ea000610060000004e00005003200f0c1b300f2
:101eb000ecf7b7000040eb00edf7b7007028070023
:101ec000762e07000040eb003ef3b7000040eb0029
:101ed000504798000040eb0040479800e8cebf0014
:101ee0000080fb004200de00610060000004e000b2
:101ef0000900320000c2b300ecf7b700e9cebf0022
:101f00000080fb00000040000040e800edf7b70053
:101f10000040eb00eef7b7000040eb00004f9800e8
:101f20002e0037000e4890000084fb000e48900001
:101f30006620070000017800ea004700080044001e
:101f400002b07800e8cebf000080fb004200de0057
:101f5000610060000004e0001d0032000e489000a7
:101f60000080fb00000040008001e8000e48900067
:101f70000080fb00ea00470000004000608078001d
:101f800000417800ec804100207e2100008040006c
:101f9000024878000e4890000080fb0000004000de
:101fa0008081e8000e4890000080fb00ea004700b6
:101fb00000004000608078004800de0000417800aa
:101fc000ec804100207e2100008040000248780023
:101fd0000e4890000040e800004f980091ee20006d
:101fe000914078000e48900080cf5000cdff3e0019
:101ff000e8cebf000080fb004200de006100600010
:102000000004e000010032001d2807003ed3bf009d
:102010000080fb006c00b900ea004000e0332100c2
:10202000808040000000eb0080087800ef0137005e
:102030000040eb0040479800f4cebf0091ee200036
:10204000914078006a024700804178005e4190002c
:102050000400780089020700504798005e40900015
:10206000e14f4000e1013200ebcebf000080fb00f9
:102070004600de00610060000004e000070032005e
:102080005e409000782c07000004e000030032005e
:102090000000eb00602f98004f0237000040eb007b
:1020a000004f98000e0037000e4890000084fb009f
:1020b00012c0b3008e4890005e409000242e0700ae
:1020c00000017800a10220008e804000080044003a
:1020d00002b078000e4890000040e800004f9800e1
:1020e000a1ee2000914078000e48900080cf500073
:1020f000edff3e00ebcebf000080fb004300de00a2
:10210000610060000004e00004003200a102200031
:102110008e8040000000eb00800878000040eb005b
:10212000004f980028003700e8cebf000080fb0079
:102130004200de00610060000004e0001f00320089
:102140000e4890000080fb00000040008081e80005
:102150000e4890000080fb00a10220008e8040000d
:10216000000040006080780000417800ec80410071
:10217000207e210000804000024878000e48900038
:102180000080fb0000004000e30140000e4890008a
:102190000080fb00a10220008e8040000000400073
:1021a000608078004800de0000417800ec8041004b
:1021b000207e210000804000024878000e489000f8
:1021c0000040e800004f9800a1ee20009140780008
:1021d0000e48900080cf5000d3ff3e00e8cebf00f5
:1021e0000080fb004200de00610060000004e000af
:1021f000750132000040eb00004f980022003700cc
:102200000e4890000080fb00000040008081e80044
:102210000e4890000080fb00a10220008e8040004c
:10222000000040006080780000417800ec804100b0
:10223000207e210000804000024878000e48900077
:102240000080fb0000004000e30140000e489000c9
:102250000080fb00a10220008e80400000004000b2
:10226000608078004800de0000417800ec8041008a
:10227000207e210000804000024878000e48900037
:102280000040e800004f9800a1ee20009140780047
:102290000e48900080cf5000d9ff3e0010c2b3001e
:1022a000ecf7b700eacebf000080fb000000400062
:1022b00000c0e800edf7b7005e409000eef7b70011
:1022c0000040eb00eff7b7006d2707003e01370035
:1022d000facebf00a1ee200091407800a4022000b9
:1022e0000e024200804178004e41900004007800c8
:1022f000e2010700404798004e409000e14f400047
:10230000310132000040eb00304798003ed3bf005f
:102310000080fb006c00b9008080e800e033210001
:1023200000804000de409000014878003ed3bf00ae
:102330000080fb006c00b9008080e800e0332100e1
:1023400000804000ce409000114098003ed3bf0076
:102350000080fb006c00b900e4004000e033210085
:10236000808040000000eb00800878003ed3bf0072
:102370000080fb006c00b900e6004000e033210063
:10238000808040000000eb00800878003ed3bf0052
:102390000080fb006c00b900ec004000e03321003d
:1023a000808040000040eb00804878003ed3bf00b2
:1023b0000080fb006c00b900ea004000e03321001f
:1023c000808040000000eb00800878003ed3bf0012
:1023d0000080fb006c00b900800078000034210010
:1023e00000804000a70207000040eb00004f98006b
:1023f0008f0037000e4890000080fb006c00b90091
:102400008080e800e0332100008040001041780027
:102410003ed3bf000080fb006c00b9008080e80064
:10242000e03321000080400010407800804f5100d0
:102430007c003a000e4890000080fb006c00b90060
:102440008080e800e03321000080400010419000cf
:102450003ed3bf000080fb006c00b9008080e80024
:10246000e03321000080400010409000804f510078
:102470006c003a0010c0b300304798000e4890003e
:102480008081fb000e4890000080fb006c00b900ca
:10249000ea004000e0332100008040001001780095
:1024a0003ed3bf000080fb006c00b900ea00400092
:1024b000e03321000080400010007800000141005e
:1024c0006c18b900ea004000e033210000804000b1
:1024d000020878000e4890000080fb006c00b900f4
:1024e000ea004000e03321000080400090017800c5
:1024f0000e4890000080fb006c00b900e80040002e
:10250000e033210000804000100178000e48900068
:102510000080fb006c00b900e8004000e0332100bf
:1025200000804000100078000000d1000000410051
:10253000808f5100100036000e4890000081fb0093
:102540000e4890000080fb006c00b900ec004000d9
:10255000e033210000804000104078008041780086
:102560000304a0006c10b900ec004000e03321002f
:1025700000804000034878000e4890000080fb0077
:102580006c00b900ea004000e03321000080400008
:10259000900178000e4890000080fb006c00b900ac
:1025a000e8004000e0332100008040001000780087
:1025b00000004000000178000e4890000080fb0001
:1025c0006c00b900e8004000e033210000804000ca
:1025d000100078000000d10000004100808f510001
:1025e000100036000e4890000081fb000e4890005d
:1025f0000080fb006c00b900ec004000e0332100db
:102600000080400010407800804178000314a00052
:102610006c10b900ec004000e03321000080400065
:10262000034878000e4890000040e800004f9800f2
:10263000e1332100914078000e48900080cf500097
:102640006cff3e003e4090000004e0005b003a005a
:102650003ed3bf000080fb006c00b9008000780012
:1026600000342100008040005e0307003ed3bf001d
:102670000080fb006c00b900e8004000e03321005e
:1026800000804000900078003e009000808f500055
:10269000080036003ed3bf000080fb006c00b9008c
:1026a000e8004000e0332100008040009000780006
:1026b00031079800e8cebf000080fb004200de003a
:1026c000610060000004e00039003200a0c1b300e6
:1026d000ecf7b70070c0b300edf7b7003ed3bf0012
:1026e000eef7b7003ed3bf000080fb006c00b900de
:1026f0008080e800e0332100008040001040780036
:10270000eff7b7003ed3bf000080fb006c00b900bc
:102710008080e800e03321000080400010409000fd
:10272000f0f7b7003ed3bf000080fb006c00b9009b
:10273000e4004000e03321000080400010007800f9
:10274000f1f7b7003ed3bf000080fb006c00b9007a
:10275000e4004000e03321000080400010007800d9
:102760004800de00f2f7b7003ed3bf000080fb0058
:102770006c00b900e6004000e0332100008040001a
:1027800010007800f3f7b7003ed3bf000080fb00d5
:102790006c00b900e6004000e033210000804000fa
:1027a000100078004800de00f4f7b7003426070078
:1027b0003ed3bf000040e8003ef3b7004e4090001b
:1027c0000040e800404798004e409000e14f400034
:1027d000030032003ed3bf00e64f5000bcfe36007f
:1027e0005e4090000040e800504798005e40900036
:1027f000e14f40000efe3a003e0090000000d10084
:10280000300798000040eb00004f98000f003700a1
:102810000e4890000080fb006c00b900e80040000a
:10282000e033210000804000900078003e009000de
:10283000808f5000020031000e4890006a000700af
:102840000e4890000040e800004f9800e13321005e
:10285000914078000e48900080cf5000ecff3e0081
:102860003ed3bf00e14f50004d0036000040eb006a
:10287000004f9800450037000e4890000080fb0094
:102880006c00b900ec004000e03321000080400003
:10289000104078000080fb00630060000000e00052
:1028a000370032000040eb00204798002f0037002f
:1028b000ae4090000e48900080cf500028003200bb
:1028c0002e4090008080fb000e4890000081fb00ad
:1028d0006c08b900e4004000e03321008081400032
:1028e0006c10b900e4004000e0332100008040009b
:1028f0001301be001000be006d0c0700000f780031
:102900000e4890000080fb006c00b900ec00400015
:10291000e033210000804000104078000080fb0080
:102920000000d100610060000004e00006003200f9
:10293000307880009e0f5000090036002e40900035
:102940002900070006003700307880000000d10021
:102950009e0f5000020036002e409000220007001b
:102960002e4090000040e80020479800e13321000d
:10297000914078002e40900080cf5000ccff3e0068
:102980000e4890000040e800004f9800e13321001d
:10299000914078000e48900080cf5000b6ff3e0076
:1029a000e8cebf000080fb004200de006100600056
:1029b0000004e00005003200e0c1b300ecf7b7000e
:1029c0000040eb00edf7b700ad2507003ed3bf0098
:1029d0000080fb00602f98006e2890004f04780064
:1029e0000080fa00000006000400fa00204798006a
:1029f0002e409000004f7800180037009e80fb00aa
:102a00001e80fb000001e8006c08b9008080e8002f
:102a1000e0332100808140006c10b9008080e80024
:102a2000e03321000080400080007800030078003f
:102a30001101be000288be0064004000e480400036
:102a40001101be000288be0064004000e480400026
:102a50001101be000288be001e4fe8003ed3bf0039
:102a60009e4f5000e5ff3e003ed3bf000040e9000e
:102a70003ef3b7000080fa00000006000e00fa00e6
:102a800030079800014f9800124f9800234f98008c
:102a900010c0b300304798000040eb00204798007a
:102aa00010c0b300104798000040eb00004f7800c2
:102ab0009e4890000e48900080cf500003003600e2
:102ac000f00f200060079800c60037001e489000f5
:102ad0000004e0003a0032001e4890000080fb0035
:102ae00000004000800078003e0090000080400020
:102af000100178001e4890000080fb00000040009c
:102b0000800078003e009000008040000080e900d6
:102b100010007800800f51001500360010c0b3007f
:102b2000304798001e4890000080fb0000004000e5
:102b3000800078003e009000008040001000780087
:102b4000004178001e4890000080fb00000040001b
:102b5000800078003e009000008040000080e90086
:102b60001000780000405100204798001400370002
:102b70000040eb00304798001e4890000080fb00aa
:102b800000004000800078003e009000008040007f
:102b90000080e90010007800004178001e48900095
:102ba0000080fb0000004000800078003e009000a4
:102bb000008040001000780000405100204798003d
:102bc0001e4890004047980080003700ce4090009b
:102bd0000e48900080cf5000390031004e409000e8
:102be0000080fb0000004000800078003e00900064
:102bf000008040000080e800100178004e40900006
:102c00000080fb0000004000800078003e00900043
:102c10000080400010007800800f51001400360042
:102c200010c0b300104798004e4090000080fb0099
:102c300000004000800078003e00900000804000ce
:102c40000080e80010007800004178004e409000bd
:102c50000080fb0000004000800078003e009000f3
:102c60000080400010007800004f5100160037002f
:102c70000040eb00104798004e4090000080fb00a1
:102c800000004000800078003e009000008040007e
:102c900010007800004178004e4090000080fb005a
:102ca00000004000800078003e009000008040005e
:102cb0000080e80010007800004f5100020037004b
:102cc0000040eb00004f78004e4090000080fb0079
:102cd00000004000800078003e009000008040002e
:102ce000900078002e4890000080fb00808f5000fc
:102cf0002f0036001e4090000004e0000400320067
:102d0000be4090001e40900080cf500028003a0046
:102d10001e4090000004e0000b0032002e409000a6
:102d20000080fb0000004000800078001e80fb0057
:102d3000808f50001e0034004e4090000080fb0049
:102d400060079800270037003e4090000004e00034
:102d50000c00320001f02000914078002e409000dd
:102d600080cf50000300390000cfbf009e4f5000bd
:102d70000f0031004e4090000080fb00600798007b
:102d8000180037001e80fb00000040008000780023
:102d90002e4090000080fb00808f50000400340023
:102da0004e4090000080fb00600798000d00370047
:102db0001e409000304798001e4078002047980041
:102dc0004e4090000040e80040479800ce40900000
:102dd0000e48900080cf50007cff3900f00f20009b
:102de000600798006e0090000080fa000000060066
:102df0000600fa0010079800414798000040eb00d9
:102e0000104798000040eb00004f780010c0b3005e
:102e100010479800140037001e4090000080fb000f
:102e200000004000800078001e00900000804000fc
:102e3000100178001e80fb00000040008000780038
:102e40001e0090000080400010007800800f5100ac
:102e5000020036001e409000004f78001e40900097
:102e60000040e800104798009e4090004e409000bf
:102e700080cf5000e8ff39001e80fb000080fa0080
:102e8000000006005600fa00881f7800202f9800e6
:102e90000040eb00004f98000040eb0070479800a6
:102ea00010c0b300604798000040eb002047980036
:102eb00074004700e1da2800350009003158780035
:102ec0006003b100eb0047002e2890009048780086
:102ed00010419000924098006b0047009040900095
:102ee0006b0047001040780012c0b300982a07001a
:102ef000200798002e289000ae0090004100980016
:102f00002701370010c0b300704798000a0037004f
:102f10007e4090008080fb00a00420000e00400056
:102f2000808040000040eb00804878007e409000a8
:102f30000040e800704798007e409000e84f500045
:102f4000f3ff3600a10420008e80400010c0b300c3
:102f5000804878000040eb00204798000040eb00dc
:102f600060479800080137002e409000e24f500063
:102f700028003a00a00420000e004000b04090005d
:102f8000a00420000e0040001040900080c06000af
:102f9000a00420000e00400051409800a004200032
:102fa0000e00400090409000a00420000e00400061
:102fb0004040900080c06000a00420000e0040004f
:102fc00061409800a00420000e004000c040900026
:102fd000a00420000e0040002040900080c060004f
:102fe000a00420000e00400071409800a0042000c2
:102ff0000e004000a0409000a00420000e00400001
:103000003040900080c06000a00420000e0040000e
:10301000014898000040eb00704798007a003700a4
:10302000e90047002e289000904878001041900059
:103030009240980069004700104078008042780074
:103040002e4090008081fb007e4090000080fb00bd
:10305000740247006300b900000178006918b900e4
:1030600000004100040040001040780000c0420011
:1030700080407800690047000148780069004700f7
:1030800010409000804278002e4090008081fb002c
:103090007e4090000080fb00740247006300b9008e
:1030a000000178006918b900000041000000e80044
:1030b000040040001040780000c0420080407800ca
:1030c00069004700114098007e4090000080fb009e
:1030d0006e014700800040000000eb008030790066
:1030e0002e4090008081fb007e4090000080fb001d
:1030f000740247006300b900000178006918b90044
:10310000000041000080e80004004000104078000a
:103110008000fb00a00420000e0040000080400062
:10312000104078000004e0001600320069004700fb
:1031300090407800e9cebf0080cf500011003100f0
:103140006900470090409000eacebf0080cf500059
:103150000c0031007e4090000084fb0069004700b5
:1031600090409000690047001040780012c0b30002
:10317000f729070000017800ee004700080044002e
:1031800002b078002e409000e14f50001b003e003e
:103190007e4090000004e000180032006e004700fe
:1031a000100f78001e0078004200de001e0f100095
:1031b0007e4090000080fb00ee00470000004000d1
:1031c000608078009e0f50000c0036002e4090006a
:1031d0000080fb0000004000800078007e409000ee
:1031e0000080fb0080804000a00420000e00400012
:1031f0008080400010c0b300804878007e4090007e
:103200000040e800704798007e409000e24f500078
:1032100083ff36006e00470031c0b300f4fe0700a4
:10322000604798006e4090000004e00053003200b8
:103230002e28900010407800804278002e409000a8
:103240008081fb006e4090000080fb00740247000c
:103250006300b900000178006918b900000041005e
:10326000040040001040780000c042008040780018
:103270002e289000014878002e28900010409000e1
:10328000804278002e4090008081fb006e409000cc
:103290000080fb00740247006300b9000001780061
:1032a0006918b900000041000000e8000400400077
:1032b0001040780000c04200804078002e28900026
:1032c000114098002e289000904090002e289000e9
:1032d0001040780012c0b3009d29070080007800dc
:1032e0002e2890003100980010c0b300004f9800c5
:1032f000e8cebf000080fb004200de0061006000fd
:103300000004e0001d00320040c2b300ecf7b7003b
:1033100080c0b300edf7b7006b00470010407800a5
:10332000eef7b7006b00470010409000eff7b700d2
:103330002e0090004800de00f0f7b7002e0090004d
:10334000f1f7b7002e28900010407800f2f7b70090
:103350002e28900010409000f3f7b7002e28900020
:10336000300090004800de00f4f7b7002e289000ef
:1033700030009000f5f7b700412307002e40900081
:103380000040e800204798006e4090000004e000f4
:1033900003003a002e409000e54f5000f2fe360048
:1033a0006e4090000004e000d6fe3a002e28900007
:1033b000904090002e2890001040780012c0b3007a
:1033c00063290700800078002e28900031009800c3
:1033d0000e4890000080fb004f0478000080fa0047
:1033e000000006001000fa0070079800e400470093
:1033f0000000eb0080087800e40047000000eb00cc
:1034000090009800e40047000000eb00a000980046
:10341000e40047000000eb00b0009800e400470023
:103420000000eb00c00098007e0090009040780003
:103430000e80e800014878007e00900090409000e7
:103440000e80e800114098000e80e8009040900047
:103450000e80e800104078000041eb003c29070096
:10346000800078006400470001087800640047008d
:10347000900078007e009000310098000e80e800f7
:10348000104078000004e0000a0032000e80e800de
:10349000904090000e80e800104078000040e90065
:1034a0000041eb002a2907008000780064004700f3
:1034b000310098000e80e800104078008080fb000a
:1034c000e9cebf000080fb000000e900808f5000c3
:1034d0000a0032000e80e800904090000e80e80064
:1034e000104078000040e8000041eb001829070078
:1034f000800078006400470011009800ebcebf0008
:103500000080fb004300de00610060000004a200b8
:103510000004e00031003a000e80e8001040900006
:10352000e14f50002d003e000e80e800104090005a
:103530000004e0000c003a000e80e800104090000b
:1035400000c0e800804078000e80e800104078005d
:103550000041eb00fe28070080007800640047006f
:10356000210098000b0037000e80e800104090000a
:103570000040e800804078000e80e80010407800ad
:103580000041eb00f228070080007800640047004b
:103590002100980064004700900078006400470014
:1035a00020009000808f5000080036006400470023
:1035b0009000780064004700200090008080500058
:1035c000640047004100980026003700e4004700ef
:1035d0000000eb00c0009800220037000e80e800d9
:1035e000104090000004e0000b0032000e80e80064
:1035f000104090000040e900804078000e80e80014
:10360000104078000041eb00d128070080007800ce
:1036100064004700410098000e80e80010409000d0
:103620008080fb00eacebf000080fb000000e900c4
:10363000808f50000b0032000e80e8001040900098
:103640000040e800804078000e80e80010407800dc
:103650000041eb00be2807008000780064004700ae
:10366000210098000e80e800104078000004e0007f
:1036700007003a00640047009000780064004700ab
:1036800010009000808050006400470031009800d6
:103690000e80e800104078008080fb00e9cebf007b
:1036a0000080fb000000e900808f500007003a0016
:1036b00064004700900078006400470030009000ec
:1036c0008080500064004700110098000e80e800e0
:1036d000104090000004e00007003a00640047003a
:1036e0009000780064004700200090008080500027
:1036f00064004700410098000e80e80010409000f0
:103700008080fb00eacebf000080fb000000e900e3
:10371000808f500007003a00640047009000780056
:103720006400470040009000808050006400470023
:10373000210098007e009000104078008080fb00ff
:103740007e009000110098007e0090001000900014
:10375000c700dd007e009000110098007e00900000
:1037600010009000f00040007e00900011009800d2
:10377000ebcebf000080fb004300de006100600074
:103780000004a2000004e00008003a000e80e800f7
:1037900010409000e14f500004003e00fe009000f9
:1037a00000062000a00098000f0037007e00900067
:1037b000104090008080fb007e0090002100980067
:1037c0007e00900020009000c700dd007e00900089
:1037d000210098007e00900020009000f000400042
:1037e0007e00900021009800640047009000900047
:1037f0006400470030009000808f5000a500390021
:1038000064004700a0009000640047004000900062
:10381000808f50004b003900640047009000780012
:10382000640047001000900000805000c601dd00d9
:10383000640047009000780064004700300090006a
:1038400000815000110009008281d800804078007a
:1038500000c4b30001405000104798007e00900063
:10386000900090001e4090000080fb00808040008f
:103870007e00900011009800ebcebf000080fb009e
:103880004300de00610060000004a2000004e000cc
:1038900015003a000e80e80010409000e14f500003
:1038a00011003e006400470090007800640047006b
:1038b0002000900000805000c701dd006400470038
:1038c00090007800640047004000900000815000a4
:1038d000110009008281d8008040780000c8b30040
:1038e000014f50001000370064004700900078003e
:1038f000640047002000900000805000c601dd00f9
:103900006400470090007800640047004000900089
:1039100000815000110009008281d80080407800a9
:1039200000c4b300014f50007e009000a000900042
:103930001e80fb00808040007e00900021009800e7
:10394000f8003700640047009000780064004700ea
:103950001000900000805000c601dd0064004700a8
:103960009000780064004700300090000081500013
:10397000110009008281d8008040780000c4b300a3
:1039800001405000104798007e0090009000900089
:103990001e4090000080fb00808040007e00900070
:1039a00011009800ebcebf000080fb004300de005a
:1039b000610060000004a2000004e00015003a006d
:1039c0000e80e80010409000e14f500011003e00d2
:1039d00064004700900078006400470040009000b9
:1039e00000805000c701dd006400470090007800af
:1039f0006400470020009000008150001100090081
:103a00008281d8008040780000c8b300014f500088
:103a10001000370064004700900078006400470001
:103a20004000900000805000c601dd0064004700a7
:103a30009000780064004700200090000081500052
:103a4000110009008281d8008040780000c4b300d2
:103a5000014f50001e80fb00fe009000a10090006e
:103a6000810f5000070031007e009000a000900000
:103a70001e80fb00808050007e0090002100980096
:103a8000a8003700fe0090000000eb00a0009800a6
:103a9000a400370064004700a000900064004700c5
:103aa00040009000808f50004b00390064004700b8
:103ab00090007800640047003000900000805000c3
:103ac000c601dd00640047009000780064004700f4
:103ad0001000900000815000110009008281d80080
:103ae0008040780000c4b3000140500010479800a7
:103af0007e009000900090001e4090000080fb002f
:103b0000808050007e00900011009800ebcebf0036
:103b10000080fb004300de00610060000004a200a2
:103b20000004e00015003a000e80e800104090000c
:103b3000e14f500011003e00640047009000780003
:103b4000640047002000900000805000c701dd00a5
:103b50006400470090007800640047004000900037
:103b600000815000110009008281d8008040780057
:103b700000c8b300014f5000100037006400470038
:103b80009000780064004700200090000080500002
:103b9000c601dd0064004700900078006400470023
:103ba0004000900000815000110009008281d8007f
:103bb0008040780000c4b300014f50007e009000a8
:103bc000a00090001e80fb00808040007e009000de
:103bd00021009800530037006400470090007800ef
:103be000640047003000900000805000c601dd00f6
:103bf00064004700900078006400470010009000c7
:103c000000815000110009008281d80080407800b6
:103c100000c4b30001405000104798007e0090009f
:103c2000900090001e4090000080fb0080805000bb
:103c30007e00900011009800ebcebf000080fb00da
:103c40004300de00610060000004a2000004e00008
:103c500015003a000e80e80010409000e14f50003f
:103c600011003e00640047009000780064004700a7
:103c70004000900000805000c701dd006400470054
:103c80009000780064004700200090000081500000
:103c9000110009008281d8008040780000c8b3007c
:103ca000014f50001000370064004700900078007a
:103cb000640047004000900000805000c601dd0015
:103cc00064004700900078006400470020009000e6
:103cd00000815000110009008281d80080407800e6
:103ce00000c4b300014f50001e80fb00fe00900096
:103cf000a1009000810f5000070031007e0090006d
:103d0000a00090001e80fb00808050007e0090008c
:103d10002100980003003700fe0090000000eb0037
:103d2000a0009800e8cebf000080fb004200de004b
:103d3000610060000004e0003400320000c3b30002
:103d4000ecf7b70060c0b300edf7b70064004700c0
:103d5000100090004800de00eef7b7006400470056
:103d600010009000eff7b7006400470010007800e3
:103d70004800de00f0f7b70064004700100078004c
:103d8000f1f7b70064004700300090004800de0003
:103d9000f2f7b7006400470030009000f3f7b70077
:103da000b720070010c3b300ecf7b70060c0b30042
:103db000edf7b70064004700200090004800de00e7
:103dc000eef7b7006400470020009000eff7b7005f
:103dd00064004700100078004800de00f0f7b700ec
:103de0006400470010007800f1f7b7006400470056
:103df000400090004800de00f2f7b7006400470082
:103e000040009000f3f7b7009d2007000000eb0092
:103e10000080fa00000006000800fa00889fbe003b
:103e2000a0c0b3003047980070c0b300204798008e
:103e30000040eb00604798001e0037000040eb0098
:103e4000504798000d0037005e4090000081fb0055
:103e50006e4090008080fb004310dd008100400038
:103e6000403921008080400000c0eb00804878008d
:103e70005e4090000040e800504798005e4090008f
:103e8000e74f5000f0ff36006e4090000080fb00ce
:103e90008103200080804000403921008080400064
:103ea0000040eb00804878006e4090000040e80041
:103eb000604798006e409000e74f5000dfff3600eb
:103ec000e8cebf000080fb004200de006100600021
:103ed0000004e000ce0032003ed3bf000004e0004a
:103ee00003003a00d4d3bf000004e000c800320051
:103ef00070c2b300ecf7b70030c0b300edf7b70005
:103f000010c0b300eef7b7003ed3bf00eff7b70025
:103f1000d4d3bf00f0f7b700592007000040eb00f2
:103f2000404798004600370070c2b300ecf7b70076
:103f300090c0b300edf7b70020c0b300eef7b700b4
:103f40004e409000eff7b7004e4090000080fb001d
:103f50006c00b9008080e800e03321000080400060
:103f600010407800f0f7b7004e4090000080fb0052
:103f70006c00b9008080e800e03321000080400040
:103f800010409000f1f7b7004e4090000080fb0019
:103f90006c00b900e4004000e033210000804000e4
:103fa00010007800f2f7b7004e4090000080fb0050
:103fb0006c00b900e4004000e033210000804000c4
:103fc000100078004800de00f3f7b7004e40900084
:103fd0000080fb006c00b900e6004000e0332100e7
:103fe0000080400010007800f4f7b7004e409000c9
:103ff0000080fb006c00b900e6004000e0332100c7
:1040000000804000100078004800de00f5f7b7009f
:104010004e4090000080fb006c00b900e8004000ba
:10402000e03321000080400010007800f6f7b70070
:10403000132007004e4090000040e80040479800e1
:10404000e1332100914078004e40900080cf500035
:10405000b5ff3e000040eb00404798006900370084
:104060004e4090008080fb00000720000088b900cf
:104070002104200080804000403921000080400061
:10408000100078000000e0005b00320070c2b30056
:10409000ecf7b700a0c0b300edf7b70030c0b30035
:1040a000eef7b7004e409000eff7b7004e4090009b
:1040b0008080fb00000720000088b9002104200058
:1040c00080804000403921000080400010007800ce
:1040d000f0f7b7004e4090008080fb000007200002
:1040e0000088b90041042000808040004039210050
:1040f0000080400010407800f1f7b7004e4090007b
:104100008080fb00000720000088b900c104200067
:10411000808040004039210000804000104078003d
:10412000f2f7b7004e4090008080fb0000072000af
:104130000088b900c104200080804000403921007f
:104140000080400010409000f3f7b7004e40900010
:104150008080fb00000720000088b900e1042000f7
:10416000808040004039210000804000100078002d
:10417000f4f7b7004e4090008080fb00000720005d
:104180000088b900e104200080804000403921000f
:1041900000804000100078004800de00f5f7b7000e
:1041a0004e4090008080fb00000720000088b9008e
:1041b000010520008080400040392100008040003f
:1041c00010007800f6f7b7004e4090008080fb00aa
:1041d000000720000088b900010520008080400011
:1041e0004039210000804000100078004800de00c7
:1041f000f7f7b700a21f07004e4090000040e8000c
:10420000404798004e409000e64f500094ff360023
:104210000040eb0060479800780037006e40900047
:104220008080fb00000720000088b90021042000e6
:10423000808040004039210000804000100078005c
:104240000000e0006a0032006e4090008080fb00b9
:10425000000720000088b900210420008080400071
:10426000403921000080400010007800e50f500028
:104270005f0032000040eb005047980057003700c5
:104280005e4090000084fb006e4090008084fb0044
:10429000de4090006e409000cb05070000417800a2
:1042a0004340dd008900400040392100008040008b
:1042b00002487800e8cebf000080fb004200de002c
:1042c000610060000004e0001f00320070c2b30013
:1042d000ecf7b70050c0b300edf7b70050c0b30023
:1042e000eef7b7006e409000eff7b7006e40900019
:1042f0008080fb00000720000088b9002104200016
:10430000808040004039210000804000100078008b
:10431000f0f7b7005e409000f1f7b7005e40900004
:104320000081fb006e4090008080fb004310dd00a8
:10433000810040004039210000804000104078009a
:10434000f2f7b7004e1f07005e4090000081fb00af
:104350006e4090008080fb004310dd008100400033
:104360004039210000804000104178005e409000fc
:104370000080fb004300dd00e700400040392100e1
:104380000080400010407800804f51001000310044
:104390005e4090008081fb005e4090000081fb0049
:1043a0006e4090008080fb004310dd0081004000e3
:1043b0004039210000804000104178004318dd00a2
:1043c000e7004000403921000080400002487800aa
:1043d0005e4090000040e80050479800e133210023
:1043e000914078005e40900080cf5000a4ff3e00d6
:1043f0006e4090000040e800604798006e409000da
:10440000e64f500085ff3600d4d3bf00e24f500086
:10441000020036000040eb00d3f3b7000040eb0091
:10442000604798004a0037006e4090008080fb0093
:10443000000720000088b90021042000808040008f
:104440004039210000804000100078000000e000aa
:104450003c0032006e4090008080fb00000720008e
:104460000088b900210420008080400040392100ec
:104470000080400010007800e50f5000310032004d
:104480000040eb0050479800290037005e40900044
:104490000081fb006e4090008080fb004310dd0037
:1044a00081004000403921000080400090407800a9
:1044b00001cfbf0080cf50001a0031005e40900055
:1044c0008081fb006e4090000082fb005e40900007
:1044d0000081fb006e4090008080fb004310dd00f7
:1044e00081004000403921000080400010417800e8
:1044f0005e4090000080fb004300dd00e7004000cc
:1045000040392100008040001040780000415100f7
:104510004318dd0084004000403921000080400045
:10452000024878005e4090000040e8005047980044
:10453000e1332100914078005e40900080cf500030
:10454000d2ff3e006e4090000040e80060479800b7
:104550006e409000e64f5000b3ff36005b0237001c
:10456000e8cebf000080fb004200de00610060007a
:104570000004e0009a00320070c2b300ecf7b7000c
:1045800030c0b300edf7b70070c0b300eef7b7006e
:104590003ed3bf00eff7b700d4d3bf00f0f7b700aa
:1045a00030c0b300404798003ed3bf000004e00095
:1045b00003003a00d4d3bf000004e00088003200ba
:1045c0000040eb0060479800560037006e409000b6
:1045d0008080fb00000720000088b9002104200033
:1045e00080804000403921000080400010007800a9
:1045f0000000e000480032006e4090008080fb0028
:10460000000720000088b9002104200080804000bd
:10461000403921000080400010007800e50f500074
:104620003d003200d17e2100914078003ed3bf0092
:1046300000c0400000c0e800edf7b7004e40900019
:104640000080fb00ec004000207e21000080400044
:10465000ee409000014878004e4090000040e80095
:10466000404798000040eb00504798001500370085
:104670004e4090008081fb005e4090000081fb0076
:104680006e4090008080fb004310dd008100400000
:10469000403921000080400010417800ec8041004a
:1046a000207e210000804000024878004e409000ab
:1046b0000040e800404798005e4090000040e8005d
:1046c00050479800e1332100914078005e4090000f
:1046d00080cf5000e6ff3e004e4090008081fb00fe
:1046e0006e4090000080fb0081032000808040002d
:1046f000403921000080400010417800ec804100ea
:10470000207e210000804000024878004e4090004a
:104710000040e800404798006e4090000040e800ec
:10472000604798006e409000e64f5000a7ff3600ab
:10473000d17e2100914078003ed3bf0000c04000f0
:104740000040e800edf7b7000040eb00504798004c
:10475000130037004e4090008081fb005e409000c7
:104760000080fb004300dd00e700400040392100ed
:104770000080400010417800ec804100207e210044
:1047800000804000024878004e4090000040e80061
:10479000404798005e4090000040e8005047980075
:1047a000e1332100914078005e40900080cf5000be
:1047b000e8ff3e004e4090000080fb00ec0040000f
:1047c000207e21008080400000c0eb0080487800ff
:1047d0004e4090000040e80040479800281e070027
:1047e0000040eb00404798000b0037004e4090001f
:1047f0000080fb00810320008080400040392100c0
:10480000808040000040eb00804878004e409000df
:104810000040e800404798004e409000e64f5000ae
:10482000f2ff36000040eb00604798009b00370025
:104830006e4090008080fb00000720000088b900d7
:104840002104200080804000403921000080400089
:10485000100078000000e0008d0032006e409000f3
:104860008080fb00000720000088b90021042000a0
:104870008080400040392100008040001000780016
:10488000e50f5000820032000040eb0050479800d6
:104890007a0037005e4090000081fb006e4090007f
:1048a0008080fb004310dd00810040004039210082
:1048b00000804000104078000004e0006c003a00e6
:1048c0006e4090000080fb0081032000808040004b
:1048d0004039210000804000104078000004e000d2
:1048e00056003200e133210091407800d4d3bf005c
:1048f00080cf5000510036000040eb004047980048
:104900003d0037004e4090000081fb006e4090005b
:104910008080fb004310dd00810040004039210011
:1049200000804000104078000004e0002f003a00b2
:104930005e4090000080fb004300dd00e700400087
:104940004039210000804000104178004e40900026
:104950000080fb004300dd00e700400040392100fb
:104960000080400010407800804f51001000360059
:104970005e4090008081fb006e4090000082fb0052
:104980004318dd00840040004039210000804000d1
:10499000104078000041e8004318dd00840040002a
:1049a0004039210000804000024878000f003700a5
:1049b0004e4090008081fb006e4090000082fb0022
:1049c0004318dd0084004000403921000080400091
:1049d000104078000041e8004318dd0084004000ea
:1049e0004039210000804000024878004e4090008d
:1049f0000040e80040479800ce4090005e409000a4
:104a000080cf5000bfff39006e4090000081fb0056
:104a10008103200082804000403921000080400056
:104a2000104078008041e90081032000828040002e
:104a30004039210000804000034878006e4090001b
:104a40000081fb008103200082804000403921006a
:104a500000804000104078008041e8008103200081
:104a600082804000403921000080400003487800e7
:104a70005e4090000040e80050479800e13321007c
:104a8000914078005e40900080cf500081ff3e0052
:104a90006e4090000040e800604798006e40900033
:104aa000e64f500062ff36000040eb0040479800a0
:104ab0000b0037004e4090000080fb004300dd00fb
:104ac000e7004000403921008080400000c0eb003a
:104ad000804878004e4090000040e8004047980031
:104ae0004e409000e64f5000f2ff36000040eb00d1
:104af000204798000040eb0060479800f000370026
:104b00006e4090008080fb00000720000088b90004
:104b100021042000808040004039210000804000b6
:104b2000100078000000e000e20032006e409000cb
:104b30008080fb00000720000088b90021042000cd
:104b40008080400040392100008040001000780043
:104b5000e50f5000d70032006e4090000080fb004f
:104b60008103200080804000403921000080400007
:104b700010407800e14f5000ce0036002e409000eb
:104b80000040e800204798000040eb0050479800a4
:104b9000530037005e4090000081fb006e409000a3
:104ba0008080fb004310dd0081004000403921007f
:104bb00000804000104078000004e00045003a000a
:104bc0000040eb00404798003f0037004e40900007
:104bd0008080fb00000720000088b900210420002d
:104be00080804000403921000080400010007800a3
:104bf0000000e000310032004e4090008080fb0059
:104c0000000720000088b9002104200080804000b7
:104c1000403921000080400010007800e50f50006e
:104c200026003200ce4090006e40900080cf5000b1
:104c3000220032005e4090000081fb004e40900058
:104c40008080fb004310dd008100400040392100de
:104c500000804000104178005e4090000080fb0022
:104c60004300dd00e70040004039210000804000a3
:104c700010407800804f5100100031005e409000dd
:104c80008081fb005e4090000081fb004e40900060
:104c90008080fb004310dd0081004000403921008e
:104ca00000804000104178004318dd00e70040001c
:104cb0004039210000804000024878004e409000ba
:104cc0000040e800404798004e409000e64f5000fa
:104cd000beff36005e4090000040e800504798005c
:104ce000e1332100914078005e40900080cf500079
:104cf000a8ff3e000040eb00404798000040eb005a
:104d000050479800150037005e4090000080fb007f
:104d10004300dd00e70040004039210000804000f2
:104d2000104178004e4090000080fb004300dd0001
:104d3000e70040004039210000804000104078002a
:104d4000804f5100020031005e41900042479800c0
:104d50005e4090000040e80050479800e133210099
:104d6000914078005e40900080cf5000e6ff3e000a
:104d70004e4090000081fb006e4090008080fb0060
:104d80004310dd0081004000403921008080400058
:104d900000c0eb0080487800ce4190005347980057
:104da0000040eb00404798003f0037004e40900025
:104db0008080fb00000720000088b900210420004b
:104dc00080804000403921000080400010007800c1
:104dd0000000e000310032004e4090008080fb0077
:104de000000720000088b9002104200080804000d6
:104df000403921000080400010007800e50f50008d
:104e0000260032005e4090000081fb004e40900082
:104e10008080fb004310dd0081004000403921000c
:104e2000008040009040780001cfbf0080cf50004c
:104e30001a0031005e4090008081fb004e409000df
:104e40000082fb005e4090000081fb004e4090001d
:104e50008080fb004310dd008100400040392100cc
:104e600000804000104178005e4090000080fb0010
:104e70004300dd00e7004000403921000080400091
:104e800010407800004151004318dd0084004000cc
:104e90004039210000804000024878004e409000d8
:104ea0000040e800404798004e409000e64f500018
:104eb000beff36006e4090000040e800604798005a
:104ec0006e409000e64f50000dff36002e409000df
:104ed0000004e000060032003e4090000040e9007f
:104ee000304798003e409000e14f40009cfd3a0062
:104ef0000040eb0040479800130037004e40900000
:104f00000080fb004300dd00e70040004039210045
:104f10008080400000c0eb00804878004e40900048
:104f20000080fb0081032000808040004039210088
:104f30008080400000c0eb00804878004e40900028
:104f40000040e800404798004e409000e64f500077
:104f5000eaff36000040eb00d3f3b7000040eb005f
:104f600060479800c00037006e4090008080fb00d2
:104f7000000720000088b900210420008080400044
:104f80004039210000804000100078000000e0005f
:104f9000b20032006e4090008080fb0000072000cd
:104fa0000088b900210420008080400040392100a1
:104fb0000080400010007800e50f5000a70032008c
:104fc0000040eb00504798009f0037005e40900083
:104fd0000081fb006e4090008080fb004310dd00ec
:104fe00081004000403921000080400010407800de
:104ff0000004e00091003a005e4090000080fb0059
:105000004300dd00e70040004039210000804000ff
:10501000ee409000014878006e4090000080fb0058
:105020008103200080804000403921000080400042
:105030005e41900002487800d3d3bf000040e800f2
:10504000d3f3b70000c1b3004047980022003700f7
:105050006e4090000082fb004e4090008080fb007c
:105060006e4090008082fb004e4090000080fb006c
:105070008001e9006608b9000001780000072000ff
:1050800000a0b90000004100c10420008080400061
:1050900040392100008240006618b9000001780004
:1050a0000007200000a8b90000004100c104200052
:1050b0008080400040392100008040001001be0087
:1050c000028abe00a0019000230298004e4090008a
:1050d0000040e900404798004e4090000004e00086
:1050e000dbff3a006e4090000082fb005e409000c3
:1050f0000080fb006c00b900e4004000e0332100b8
:10510000008040001001be000007200000a0b90090
:10511000e1042000808040004039210000804000f0
:105120000288be006e4090008080fb005e409000d0
:105130000081fb00000720000088b900c1042000a6
:105140008080400040392100808140006c10b9000f
:105150008080e800e0332100008040009009780062
:105160006e4090000081fb00000720000090b90015
:10517000a1042000808040004039210000804000d0
:10518000104078008041e800000720000090b9003e
:10519000a1042000808040004039210000804000b0
:1051a000034878006e4090008080fb0000072000dc
:1051b0000088b900a104200080804000403921000f
:1051c0000080400010407800f04f50000a00360088
:1051d0006e4090008080fb00000720000088b9002e
:1051e000a1042000808040004039210080804000e0
:1051f00000c1b30080487800e8cebf000080fb000b
:105200004200de00610060000004e0000b0032009c
:1052100070c2b300ecf7b70030c0b300edf7b700d1
:1052200090c0b300eef7b7005e409000eff7b70014
:105230006e409000f0f7b700911b07005e409000b1
:105240000040e80050479800e13321009140780089
:105250005e40900080cf50005cff3e006e409000aa
:105260000040e800604798006e409000e64f500014
:105270003dff36000040eb00504798000a01370020
:105280005e4090000080fb004300dd00e70040002e
:10529000403921000080400010407800e14f40007c
:1052a000fe003a000040eb00604798000040eb0031
:1052b00040479800690037004e4090008080fb0016
:1052c000000720000088b9002104200080804000f1
:1052d0004039210000804000100078000000e0000c
:1052e0005b0032004e4090008080fb0000072000f1
:1052f0000088b9002104200080804000403921004e
:105300000080400010007800e50f5000500032008f
:105310004e4090008080fb00000720000088b9000c
:10532000e1042000808040004039210000804000de
:10533000100f78005e4090000080fb006c00b90008
:10534000e4004000e03321000080400010007800bd
:105350009e0f5000090031005e4090000080fb006d
:105360006c00b900e4004000e03321000080400000
:10537000100078001e0f1000080037005e409000fb
:105380000080fb006c00b900e4004000e033210025
:1053900000804000100078001e0f500002cfbf00b8
:1053a0000080fb009e0f5000290036004e40900008
:1053b0008080fb00000720000088b9000105200064
:1053c000808040004039210000804000100f7800ac
:1053d0005e4090000080fb006c00b900e6004000d9
:1053e000e033210000804000100078009e0f500044
:1053f000090031005e4090000080fb006c00b900a5
:10540000e6004000e03321000080400010007800fa
:105410001e0f1000080037005e4090000080fb0067
:105420006c00b900e6004000e0332100008040003d
:10543000100078001e0f500002cfbf000080fb005c
:105440009e0f50000200360070c0b3006047980005
:105450004e4090000040e800404798004e409000c9
:10546000e64f500094ff3600030037006e40900076
:105470000040e800604798006e409000e64f500002
:105480000b003e006e4090008080fb000007200073
:105490000088b900210420008080400040392100ac
:1054a00000804000100078000000e000efff3a00ac
:1054b0006e409000e64f500078003e00e8cebf00fe
:1054c0000080fb004200de00610060000004e0009c
:1054d0000b00320070c2b300ecf7b70030c0b3006d
:1054e000edf7b70040c0b300eef7b7005e409000a4
:1054f000eff7b7006e409000f0f7b700e01a070032
:105500006e4090008080fb00000720000088b900fa
:10551000210420008080400040392100808040002c
:1055200010002000800878006e4090008080fb0012
:1055300032f0200012417800000720000088b900f6
:10554000410420008080400040392100008040005c
:10555000024878005e4090000080fb004300dd00c0
:10556000e70040004039210000804000ee409000fc
:10557000014878006e4090000080fb00810320000d
:105580008080400040392100008040005e41900052
:1055900002487800d3d3bf000040e800d3f3b7003f
:1055a0000040eb00404798002c0037006e40900010
:1055b0008082fb004e4090000082fb005e40900025
:1055c0000080fb006c00b900e4004000e0332100e3
:1055d000008040001001be006620b9000002780083
:1055e0000007200000a8b90000004200e1042000ec
:1055f0008080400040392100008040000288be00c9
:105600006e4090008081fb004e4090008080fb0047
:105610005e4090000082fb006608b900000178003f
:10562000000720000098b90000004100c1042000dc
:105630008080400040392100008140006c20b9008a
:105640008080e800e03321000080400010097800ed
:105650004e4090000040e800404798004e409000c7
:10566000ef4f5000d1ff36006e4090008080fb006d
:10567000000720000088b900a104200080804000bd
:10568000403921008080400010c0b300804878007d
:10569000d4d3bf000040e800d4f3b7005e409000d0
:1056a0000040e80050479800e13321009140780025
:1056b0005e40900080cf5000f1fe3e000040eb00c5
:1056c00060479800b90037006e4090000080fb00f2
:1056d000810320008080400040392100008040008c
:1056e00010407800e14f4000370032006e409000db
:1056f0008080fb00000720000088b9002104200002
:105700008080400040392100008040001000780077
:10571000e40f50000b003a006e4090008080fb00c8
:10572000000720000088b90021042000808040008c
:10573000403921008080400030002000800878003f
:105740007b0037006e4090008080fb000007200047
:105750000088b900410420008080400040392100c9
:1057600000804000104078000004e00070003a0023
:105770006e4090008080fb00000720000088b90088
:10578000210420008080400040392100008040003a
:1057900010007800e10f500065003a006e40900064
:1057a0008080fb00000720000088b9002104200051
:1057b000808040004039210080804000200020008f
:1057c000800878005a0037006e4090008080fb000f
:1057d000000720000088b9002104200080804000dc
:1057e000403921000080400010007800e10f500097
:1057f0000e003a006e4090008080fb000007200001
:105800000088b90021042000808040004039210038
:10581000808040000000eb0080087800d4d3bf00f7
:105820000040e900d4f3b700410037006e4090001b
:105830008080fb00000720000088b90021042000c0
:105840008080400040392100008040001000780036
:10585000e30f500016003a006e4090008080fb007d
:10586000000720000088b90021042000808040004b
:1058700040392100808040004000200080087800ee
:105880006e4090008080fb0042f0200012417800c2
:10589000000720000088b9004104200080804000fb
:1058a0004039210000804000024878002000370085
:1058b0006e4090008080fb00000720000088b90047
:1058c00021042000808040004039210000804000f9
:1058d00010007800e40f500015003a006e40900070
:1058e0008080fb00000720000088b90041042000f0
:1058f0008080400040392100008040001040780046
:105900000004e0000a003a006e4090008080fb0036
:10591000000720000088b90021042000808040009a
:10592000403921008080400050002000800878002d
:105930006e4090008080fb00000720000088b900c6
:105940004104200080804000403921000080400058
:10595000104078000004e000110032006e4090001a
:105960000081fb00000720000090b90041042000e6
:1059700080804000403921000080400010407800c5
:105980008041e900000720000090b9004104200098
:1059900080804000403921000080400003487800aa
:1059a0006e4090000040e800604798006e40900014
:1059b000e64f500044ff36000000eb004f04be00ed
:1059c0000080fa00000006000400fa00204798005a
:1059d000314798000080eb00000f78002e409000c7
:1059e000e64f500029003e002e4090008080fb00d2
:1059f000000720000088b9002104200080804000ba
:105a00004039210000804000100078000000e000d4
:105a10001e0032002e4090008080fb000007200016
:105a20000088b90021042000808040004039210016
:105a30000080400010007800e50f50001300320095
:105a40003e4090008080fb002e4090000081fb00d3
:105a50006c08b900e4004000e03321008081400080
:105a6000000720000090b900e10420008080400081
:105a700040392100008040001301be001000be002c
:105a8000330007000080fb00000f7800f00f2000bb
:105a90009e0f100002003600f00f2000000f78006b
:105aa0001e0078000080fb000080fa000000060065
:105ab0000c00fa0020079800310798004207980070
:105ac00053079800ae0090004e009000808f500069
:105ad000050036002e009000ce009000010050001e
:105ae000000f7800040037004e009000ae009000d8
:105af00001005000000f7800be0090005e00900092
:105b0000808f5000050036003e009000de009000bf
:105b10000100500010079800040037005e0090005c
:105b2000be00900001005000100798009e009000f9
:105b30001e007800808f5000020036001e0090008a
:105b4000000f78001e0078000080fa0000000600b8
:105b50000c00fa00200798003107980042079800cf
:105b600053079800ae0090004e009000808f5000c8
:105b7000050036002e009000ce009000010050007d
:105b8000000f7800040037004e009000ae00900037
:105b900001005000000f7800be0090005e009000f1
:105ba000808f5000050036003e009000de0090001f
:105bb0000100500010079800040037005e009000bc
:105bc000be00900001005000100798009e00780071
:105bd0001e00900000804000000f78001e0078003a
:105be0000000d100000f78009e007800f00f200028
:105bf000808f500002003600f00f2000000f780068
:105c00001e0078000080fb000080fa000000060003
:105c10000c00fa0040079800510798004e009000d1
:105c2000f000900060009000008fbe004e009000d9
:105c3000a0089000100890002007980031079800f5
:105c40001e0178009e0078002e0090000080500019
:105c5000800041005e009000010878001e01900065
:105c60009e0090003e0090000080500080004100a7
:105c70005e009000110098000080fa00000006000d
:105c80001200fa000040eb00604f9800340137002a
:105c90006e4890008080fb00000720000088b9005b
:105ca0002104200080804000403921000080400015
:105cb00010007800e20f5000160032006e4890008d
:105cc0008080fb00000720000088b900210420002c
:105cd00080804000403921000080400010007800a2
:105ce000e30f50000b0032006e4890008080fb00f4
:105cf000000720000088b9002104200080804000b7
:105d0000403921000080400010007800e50f50006d
:105d100010013a00ffcebf00504f98006000b8005d
:105d200040079800510798006000b80020079800cd
:105d3000310798006e4890008080fb00000720002b
:105d40000088b900a1042000808040004039210073
:105d500000804000904078005e48900080cf500066
:105d60000a0031006e4890008080fb000007200090
:105d70000088b900a1042000808040004039210043
:105d80000080400090407800514f98000040eb00a8
:105d9000404f98002d0037006e4890008081fb0036
:105da0004e4890000080fb006600b90000017800ba
:105db000000720000098b90000004100e104200025
:105dc00080804000403921000080400010007800b1
:105dd0006101b8004e009000de009000000041001c
:105de0008180490040079800510798006e48900054
:105df0008081fb004e4890000080fb006600b900e7
:105e000000017800000720000098b9000000410060
:105e100001052000808040004039210000804000c2
:105e2000100078006101b8002e009000be009000c4
:105e30000000410081804900200798003107980048
:105e40004e4890000040e800404f9800ce48900037
:105e50005e48900080cf5000cfff39005e48900030
:105e60000081fb00030020004e009000de00900047
:105e7000b5e9070040079800510798005e48900078
:105e80000081fb00030020002e009000be00900067
:105e9000ade907002007980031079800607780007f
:105ea0006103b800ce00900006007800000ab80038
:105eb0004e0090000780b900050178000001410004
:105ec0005e00900000b0b90000014100820278003d
:105ed00044079800550798004e009000de0090009f
:105ee0004109dd004f00de0000007100cf08de0038
:105ef0004007980051079800707780006103b80050
:105f0000ae00900006007800000ab8002e00900055
:105f10000780b90005017800000141003e009000b3
:105f200000b0b90000014100820278002407980007
:105f3000350798002e009000be0090004109dd005a
:105f40004f00de0000007100cf08de00200798003f
:105f5000310798004e019000de0190000000210002
:105f600001002000800f5100818f5900030036008e
:105f70006000b80040079800510798004e0190005b
:105f8000de019000f03f200001002000800f510052
:105f9000818f590004003600f03f200001002000ee
:105fa00040079800510798002e019000be01900014
:105fb0000000210001002000800f5100818f590056
:105fc000030036006000b8002007980031079800f1
:105fd0002e019000be019000f03f20000100200043
:105fe000800f5100818f590004003600f03f2000df
:105ff000010020002007980031079800fecebf0066
:106000000080fb0063006000000f98000e08900005
:10601000e20f5000100032008e089000e38f500015
:10602000160032000e099000e10f5100010032000d
:1060300022003700f03f2000010020004e019000b8
:10604000de01900002005000838058004007980055
:106050005107980019003700f03f20000100200090
:106060002e019000be019000020050008380580075
:10607000200798003107980010003700f23f2000f9
:10608000030020004e009000de0090000000510050
:10609000818059004007980051079800f23f200086
:1060a000030020002e009000be0090000000510070
:1060b000818059002007980031079800fecebf006c
:1060c0000080fb004200de00610060000004e00090
:1060d0000a0032004e009000de009000008fbe00eb
:1060e0002e009000be0090004007980051079800d5
:1060f0001e00be0020079800310798006e489000ef
:106100008080fb004e019000000720000088b9004d
:106110006104200080804000403921000080400060
:10612000020878006e4890008080fb002e019000ed
:10613000000720000088b900810420008080400012
:106140004039210000804000020878006e4890002d
:10615000dc1607006e4890000040e800604f980091
:106160006e489000e64f5000c9fe36000080fa00ed
:10617000000006000200fa009ec0a900f00f2000f7
:1061800070248800f00f2000502488002000200098
:10619000302588000000eb00402588008644a900d7
:1061a000f009200080248800f00920006024880085
:1061b0008804a80000a021004800de00c024880058
:1061c0009424a8000000eb00b02488006000b80010
:1061d00060258800712588000000eb00802588007c
:1061e0009424a9000040eb00004f7800070037001e
:1061f0001e80fb00c200dd0000a0210000814000e5
:106200006000b8000089be001e4fe800f0c0b30077
:106210009e4f1000f6ff3600d00020005025880069
:106220000200370080002000502488008ac4bf008c
:10623000684060000004e000faff3a000040eb0014
:106240003af8b7000040eb0045f8b70046d8bf0069
:106250006040600046f8b70047d8bf00604060006b
:1062600047f8b70094a4a9000040eb00004f780065
:106270000d0037001e80fb00a184210000004000bb
:10628000810040000000eb00800878001e80fb00c9
:106290008185210000004000810040000000eb00eb
:1062a000800878001e4fe80030c0b3009e4f1000f9
:1062b000f0ff360081a02100a084210001087800b1
:1062c0000040eb0042f8b7000000eb0000c288007d
:1062d0000080fa00000006003600f800809fbe0033
:1062e000829fbe00849fbe00869fbe003400f800df
:1062f00000002000a00188000200fa00dcc9bf00f5
:106300000014a000dce9b70000c28000e10f5000db
:106310000a003a0094c4bf000044b2000004e00048
:1063200006003a00f00f2000502488008c04a800da
:106330008c84a8002000200000c2880080c4bf0018
:10634000704060000004e0000700320082c4bf001b
:10635000704060000004e0000300320000012000f3
:1063600000248800a500070088c4bf0062406000c8
:106370000004e000020032008ec0a9007500370062
:106380008ac4bf00614060000004e00018003200d1
:106390008cc4bf00614060000004e00014003200c3
:1063a00074ff07009ec0a8004000200000c28800c3
:1063b0004087210010d0880080c0b30000fab700e9
:1063c00011a021009140780030c0b30000c06000ef
:1063d00001fab70011a0210091407800c0c8b300b5
:1063e00000c0700001fab70010002000502488009f
:1063f0008ac4bf00704060000004e0000700320063
:106400008cc4bf00704060000004e0000300320054
:106410007000070000012000502488008ac4bf00db
:10642000644060000004e0000a0032008cc4bf0039
:10643000644060000004e00006003200120020000a
:106440008000eb00300720000f1f070040002000f5
:10645000502488008ac4bf0001c8b3000140600016
:106460000004e000060032008cc4bf0001c8b30085
:10647000014060000004e000010032003d00070020
:106480008ac4bf00624060000004e0000c003200db
:106490008cc4bf00624060000004e00008003200cd
:1064a000120020008000eb00f0ff2700f61e07001e
:1064b000f00f200070248800200020005024880065
:1064c00000c28000e30f500002003e008ec0a90011
:1064d000200037008cc4bf00684060000004e0006a
:1064e0001b0032000040eb00004f78001500370021
:1064f0008ac4bf00684060000004e000140032005d
:106500009024800064f8b7008000200050248800a8
:1065100064d8bf008080fb00000f20000080600076
:106520000000e00002003a003e00070004003700cf
:10653000418621000001eb0020072000d21e070049
:106540001e4fe80030c0b3009e4f1000e8ff360039
:106550008ec0a9000080fa003400f9004f03be008d
:106560004f02be004f01be004f00be003600f900d2
:10657000004006000000fa00aac4bf0062406000ac
:106580000004e0000f003200a0c2800090409000a4
:1065900000c8b30080cf500009003a00a084210059
:1065a000100078009040900040c8b30080cf5000a9
:1065b00003003a00a1c28000c0c8b3009040980018
:1065c000aa24a90000082000502488000080fa00b6
:1065d000000006000000fa008284a80000012000ec
:1065e000502488000001eb008000eb0050072000e1
:1065f000a51e07000080fa00000006000000fa0057
:106600000001eb008000eb00400720009e1e070009
:106610008284a90000012000002488000080fa0084
:10662000000006000200fa0064d8bf008080fb0072
:10663000b0ff2f00008060000000e00035003a004d
:1066400064d8bf008080fb00c00f20000080600085
:106650004280de004200dd008000780000a02100c2
:1066600000804000a0c28800a0c28000b0c28800a4
:106670006185210060852100104078000024a2007f
:1066800080487800a0c2800010409000c2c3b300d0
:106690008240600040c3b30080cf50001b003a002e
:1066a000a0c2800090009000c0872100808f500021
:1066b00014003a00a1c28000408721009000980099
:1066c0000040eb00004f78000b0037001e80fb00fd
:1066d0008000780040872100008140001e80fb0080
:1066e00080007800c08721000080400010407800c2
:1066f000004978001e4fe80070c0b3009e4f1000a4
:10670000f2ff36000c000700090037002a000700de
:106710000700370064d8bf008080fb00b0ff2f0067
:1067200000806000e80f500001003a003a000700c6
:106730000080fa00000006000000fa00a08421009a
:10674000100078009040900000c8b30000c06000c6
:106750000004e00004003200a084210090007800d2
:106760000040eb00904098000040eb0060f8b7005c
:106770000040eb0061f8b7003bd8bf00604060000c
:106780003bf8b7003cd8bf00604060003cf8b70061
:106790000040eb003af8b7007f0007000001eb0073
:1067a0008000eb0030002000371e070014020700b5
:1067b0000080fa00000006000000fa0061d8bf0067
:1067c000e24f500002003a0021030700100037009a
:1067d0004b00070030c380000000e0000a003a00d0
:1067e000b1c2800080c0b30080487800b1c2800090
:1067f0004087210090009800b1c28000c0c8b3005b
:1068000090409800020037000000eb0030c3880081
:106810000080fa00000006000200fa00a0842100b7
:1068200010007800104090000080fb004600de0061
:1068300061406000004f7800a1842100a084210005
:10684000104078000024a2008048780000c2800038
:10685000e80f50000b003a0076d8bf000080fb0024
:10686000b0248800b02480000000e0000300320063
:106870000001200000c28800020037004000200014
:1068800000c2880061d8bf00e14f500019003a00f3
:10689000a084210090007800c0872100900098001b
:1068a0006702070060d8bf00e24f500005003a00c1
:1068b000a08421009000780040c8b3009040980068
:1068c0000d0037001e04e00005003a00a0842100fe
:1068d0009000780080ccb30090409800060037000c
:1068e000a08421009000780080c8b30090409800f8
:1068f00001003700020007000080fa0000000600d7
:106900000200fa000040eb0061f8b700a08421000b
:10691000900078000040eb0090409800a084210097
:10692000100078000020a200000f78009e00780080
:106930000040eb0090409800518421009140780085
:1069400000c8b30000c060000004e0001000320086
:1069500048d8bf008080fb0049d8bf000080fb0002
:106960004800dd00010070000000e0000700320078
:1069700048d8bf008080fb0049d8bf000080fb00e2
:106980004800dd00010070000000010045f8a9008a
:106990000080fa00000006000400fa0074d8bf006e
:1069a0000046b2000004e00058003a0075d8bf006d
:1069b0000080fb006101b900028fbe00b000200022
:1069c000010020001e01be00800f5100818f590080
:1069d0004e003e001e00be00006001002400370093
:1069e00025003700490037002300370047003700f3
:1069f0000600370009003700400037000b00370061
:106a0000080037001e003700330037003af8a800ae
:106a10008000200000c288003c003700a40007006e
:106a20003a003700090307003800370022842100ac
:106a3000f00f20008000610038d8bf006040600087
:106a40000140700038f8b700c810de0039d8bf0028
:106a5000604060000140700039f8b7003a18a800a3
:106a600010c0b3003bf8b7003af8a8002700370081
:106a70000d0107002500370026000700230037001e
:106a800078d8bf000080fb008000780020852100be
:106a90000080400000017800f00f200080006100bd
:106aa00038d8bf00604060000140700038f8b7007f
:106ab000c810de0039d8bf0060406000014070009f
:106ac00039f8b7003a18a80010c0b3003bf8b70077
:106ad0003af8a8000d0037003af8a80078d8bf00af
:106ae0008080fb0062872100124178002085210010
:106af0000080400002487800040037000001eb00ed
:106b00008000eb00200020005f1d07000080fa00dd
:106b1000000006000400fa0076d8bf00e14f5000e4
:106b20000d003a0074d8bf007f4060000004e00010
:106b300009003a003af8a80075d8bf00e34f5000aa
:106b400003003a0010002000f0c188000200370066
:106b50000000eb00f0c1880076d8bf000004e00020
:106b600051003a0074d8bf007f406000e24f5000ef
:106b70004d003a0078d8bf006f4060000004e0008c
:106b8000490032003af8a80078d8bf0001c8b30025
:106b9000014060000004e00009003a0078d8bf001e
:106ba0006f4060000080fb008185210000004000f4
:106bb000010040001000780010079800080037001e
:106bc00078d8bf006f4060000080fb00a1842100e6
:106bd00000004000010040001000780010079800fd
:106be00075d8bf00e34f500004003a009e009000ab
:106bf00040c8b300904098002b00370078d8bf0001
:106c00006f4060000080fb000000400080007800c2
:106c1000a04a200000804000000f78001e0078008d
:106c200090407800d0cfb30080c060001e00780094
:106c300001487800818721009140780000c8b300a6
:106c400000c060000004e0000c0032009e009000d4
:106c50000040eb00904098008e80e8000e80e80035
:106c6000104078000024a200804878009e00900028
:106c700000c4b300904098000b0037009e009000c5
:106c800080c8b300904098008e80e8000e80e80035
:106c9000104078000024a200804878009e009000f8
:106ca00080ccb300904098000080fa0000000600fd
:106cb0000200fa00418721009140780000c8b3002b
:106cc00080cf500076003a0000ccb3003af8b7000d
:106cd00077d8bf000080fb00000f78001e0078000e
:106ce000e20f50001b0032001e007800e30f50003e
:106cf0003d0032001e007800e10f5000010032001c
